:03000000020026D5
:0C002600787FE4F6D8FD75815102006D72
:1002DD00E53FFD7C00E4FFFE1201E3E535FD7C000A
:0702ED007F017E000201E326
:1002380012035E1200F81202DD308305753F01805B
:1002480003E4F53F1200B212000912000A7F327E61
:06025800001202A980E083
:10000E00EF1FAC0670011E4C600A0515E51570F069
:04001E00051480EC59
:0100220022BB
:0402A900AB07AA06EF
:1002AD00900000C3E5829BE5839A500A7FDE7E01B4
:0602BD0012000EA380ED0B
:0102C3002218
:0C01B700011114011314011214011014A2
:0100090022D4
:01000A0022D3
:10033600AE071FEE600DE4FCFD0DED70010C4C6088
:03034600EF80F64F
:010349002291
:0D037100E4F5C7F5C5F5C675C380F5C422D7
:1002F40075C78375C5018FC48EC375C65A75C6A5E7
:0603040000AFC2120371FC
:01030A0022D0
:10030B0075C78375C5028FC48EC38DC275C65A75EA
:06031B00C6A500020371FB
:10034A0075C78375C5038FC48EC375C65A75C6A58E
:04035A000002037129
:0301C300011D001B
:1000B200E51D14601714602114602C240370353080
:1000C200820630840320852D751D01223082063080
:1000D200840320851B751D0222208207E53F6003F1
:1000E200E4F511751D032230820B3084083085053A
:0600F200E4F51D220022CE
:020003007F017B
:0100050022D8
:1000F800753F01E4F535F536F537F538F539F53A54
:10010800F53BF53CF53DF53EF521F527F528F529B4
:10011800F52AF52BF52EF52FF530F531F532F533B7
:10012800F534F522F523F524F525F526F52CF52DDE
:0101380022A4
:020006007F0178
:0100080022D5
:03000B0002025E90
:10025E00C0E0C0D075D008758A67758CFCE51C159A
:10026E001CAE1B7002151B4E7005F51B751C14B2CF
:06027E00A6D0D0D0E03252
:10032100758901758A67758CFCD28CD2A9D2AFE42C
:05033100F51BF51C2284
:1001C600C1000F42FFFFFFFFFFFFFFFFFFFFFFFF23
:0C01D600FFFFFF0151000141000140004B
:10035E00759850758920758BFD758DFDD28ED2AC3A
:03036E00D2AF22E9
:0300230002020FC7
:10020F00C0E0C0F0C083C082C0D075D0083098075E
:10021F00C298AF99120139309904C299C201D0D056
:09022F00D082D083D0F0D0E0327F
:09037E002001FDEFD201F59922E6
:100284008B188A19891AAB18AA19A91A1202C46000
:1002940013051AE51A7002051914F91202C4FF12A3
:0502A400037E80E22250
:1001E300AB07AA067F5A12037E7FA512037E7F0503
:1001F30012037E7F8212037EAF0212037EAF0312CD
:0C020300037EAF0412037EAF0502037EF1
:10013900E55114601214601714601C2403702DEF2C
:10014900645A702C055122BFA503055122801E8FC8
:1001590040E4F54105512274422541F8A6070541BD
:10016900E541C39540400912017A800100E4F55147
:010179002263
:10017A00E546F516E547F517B2A6E5447011E53FE1
:10018A006003B40205E4F53F8020753F01801BE55A
:10019A0044B4010EE5356005E4F535800D75350189
:0C01AA008008E544B4110385472ED20004
:0101B6002226
:10003200020238E493A3F8E493A34003F68001F2AA
:1000420008DFF48029E493A3F85407240CC8C333CF
:10005200C4540F4420C8834004F456800146F6DF9E
:10006200E4800B01020408102040809001B7E47E76
:10007200019360BCA3FF543F30E509541FFEE49393
:10008200A360010ECF54C025E060A840B8E493A35A
:10009200FAE493A3F8E493A3C8C582C8CAC583CA85
:1000A200F0A3C8C582C8CAC583CADFE9DEE780BE3D
:0101E200001C
:1002C400BB010689828A83E0225002E722BBFE0238
:0902D400E32289828A83E493226B
:00000001FF
