:0300000002018C6E
:0C018C00787FE4F6D8FD7581510201D3A4
:10002600E53FFD7C00E4FFFE12030CE535FD7C0098
:100036007F017E0012030CE536FD7C007F027E0008
:1000460012030CE537FD7C007F037E0012030CE5EE
:1000560038FD7C007F047E0012030CE539FD7C0030
:100066007F057E0012030CE53AFD7C007F067E00CC
:1000760012030CE53BFD7C007F077E0012030CE5B6
:100086003CFD7C007F087E0012030CE53DFD7C00F4
:100096007F097E0012030CE53EFD7C007F0A7E0090
:1000A60012030CE521FD7C007F0B7E0012030CE59C
:1000B60027FD7C007F0C7E0012030CE528FD7C00EA
:1000C6007F0D7E0012030CE529FD7C007F0E7E006D
:1000D60012030CE52AFD7C007F0F7E0012030CE55F
:1000E6002BFD7C007F107E0012030CE52EFD7C00AC
:1000F6007F117E0012030CE52FFD7C007F127E002F
:1001060012030CE530FD7C007F137E0012030CE524
:1001160031FD7C007F147E0012030CE532FD7C006D
:100126007F157E0012030CE533FD7C007F167E00F2
:1001360012030CE534FD7C007F177E0012030CE5EC
:1001460022FD7C007F187E0012030CE523FD7C0057
:100156007F197E0012030CE524FD7C007F1A7E00C9
:1001660012030CE525FD7C007F1B7E0012030CE5C7
:1001760026FD7C007F1C7E0012030CAD2DAC2C7F6F
:06018600237E0002030CC1
:1003AC0012046B12025E120026B2A6308305753F52
:1003BC00018003E4F53F12021812000912000A80B2
:0103CC00E54B
:10000E00EF1FAC0670011E4C600A0518E51870F063
:04001E00051780EC56
:0100220022BB
:0403CD00AB07AA06CA
:1003D100900000C3E5829BE5839A500A7FDE7E018F
:0603E10012000EA380EDE6
:0103E70022F3
:0C02E00001111401131401121401101478
:0100090022D4
:01000A0022D3
:10044300AE071FEE600DE4FCFD0DED70010C4C607A
:03045300EF80F641
:010456002283
:0D047E00E4F5C7F5C5F5C675C380F5C422C9
:1004010075C78375C5018FC48EC375C65A75C6A5D8
:0604110000AFC212047EE0
:0104170022C2
:1004180075C78375C5028FC48EC38DC275C65A75DC
:06042800C6A50002047EDF
:1004570075C78375C5038FC48EC375C65A75C6A580
:040467000002047E0D
:0302EC00011D00F1
:10021800E51D14601714602114602C240370353018
:10022800820630840320852D751D01223082063018
:10023800840320851B751D0222208207E53F600389
:10024800E4F511751D032230820B308408308505D2
:06025800E4F51D22002266
:020003007F017B
:0100050022D8
:10025E00753F01E4F535F536F537F538F539F53AEC
:10026E00F53BF53CF53DF53EF521F527F528F5294D
:10027E00F52AF52BF52EF52FF530F531F532F53350
:10028E00F534F522F523F524F525F526F52CF52D77
:01029E00223D
:020006007F0178
:0100080022D5
:03000B000203618C
:10036100C0E0C0D075D008758A67758CFCE51A1598
:100371001AAE19700215194E7005F519751A14B2D5
:06038100A6D0D0D0E0324E
:10042E00758901758A67758CFCD28CD2A9D2AFE41E
:05043E00F519F51A227A
:1002EF00C1000F42FFFFFFFFFFFFFFFFFFFFFFFFF9
:0C02FF00FFFFFF01510001410001400021
:10046B00759850758920758BFD758DFDD28ED2AC2C
:03047B00D2AF22DB
:030023000203389D
:10033800C0E0C0F0C083C082C0D075D00830980734
:10034800C298AF9912029F309904C299C201D0D0C5
:09035800D082D083D0F0D0E03255
:090496002001FDEFD201F59922CD
:100387008B148A158916AB14AA15A9161203E860EF
:10039700130516E5167002051514F91203E8FF1286
:0503A700049680E22233
:10030C00AB07AA067F5A1204967FA51204967F05A6
:10031C001204967F82120496AF02120496AF031257
:0C032C000496AF04120496AF050204967C
:10029F00E55114601214601714601C2403702DEFC5
:1002AF00645A702C055122BFA503055122801E8F61
:1002BF0040E4F54105512274422541F8A607054156
:1002CF00E541C39540400912048B800100E4F551CC
:0102DF0022FC
:0A048B00E546F51BE547F51CD2001D
:010495002244
:100198000203ACE493A3F8E493A34003F68001F2CE
:1001A80008DFF48029E493A3F85407240CC8C33368
:1001B800C4540F4420C8834004F456800146F6DF37
:1001C800E4800B01020408102040809002E0E47EE5
:1001D800019360BCA3FF543F30E509541FFEE4932C
:1001E800A360010ECF54C025E060A840B8E493A3F3
:1001F800FAE493A3F8E493A3C8C582C8CAC583CA1E
:10020800F0A3C8C582C8CAC583CADFE9DEE780BED5
:01030B0000F1
:1003E800BB010689828A83E0225002E722BBFE0213
:0903F800E32289828A83E4932246
:00000001FF
