:030000000200AC4F
:0C00AC00787FE4F6D8FD75812002000387
:100077005354433132433541363053320D0A5561BB
:0C0087007274205465737420210D0A006F
:10000300759850758920758BFD758DFDD28ED2AC98
:0D001300D2AF7BFF7A00797712005280FE99
:03002300020026B2
:10002600C0E0C0F0C083C082C0D075D00830980A46
:10003600C298859980AF991200B8309904C299C2C6
:0C00460000D0D0D082D083D0F0D0E032C7
:0900B8002000FDEFD200F59922B1
:100052008B108A118912AB10AA11A9121200936097
:10006200130512E5127002051114F9120093FF1222
:0500720000B880E2224D
:10009300BB010689828A83E0225002E722BBFE026B
:0900A300E32289828A83E493229E
:00000001FF
