:03000000020614E1
:0C061400787FE4F6D8FD75812002065BBB
:10021200900025E0FD7C00E4FFFE1208DA90001257
:10022200E07012900025E06003B402047F028007B0
:10023200E4FFFE80047F087E001208FF90001AE0AF
:10024200FD7C007F017E001208DA90001CE0FD7C3C
:10025200007F027E001208DA90001DE0FD7C007F24
:10026200037E001208DA90001EE0FD7C007F047E0F
:10027200001208DA90001FE0FD7C007F057E00126C
:1002820008DA900020E0FD7C007F067E001208DA8A
:10029200900021E0FD7C007F077E001208DA9000CA
:1002A20022E0FD7C007F087E001208DA900023E045
:1002B200FD7C007F097E001208DA900024E0FD7CBC
:1002C200007F0A7E001208DA900000E0FD7C007FC9
:1002D2000B7E001208DA90000BE0FD7C007F0C7EA2
:1002E200001208DA90000CE0FD7C007F0D7E001207
:1002F20008DA90000DE0FD7C007F0E7E001208DA25
:1003020090000EE0FD7C007F0F7E001208DA900064
:100312000FE0FD7C007F107E001208DA900013E0EF
:10032200FD7C007F117E001208DA900014E0FD7C53
:10033200007F127E001208DA900015E0FD7C007F3B
:10034200137E001208DA900016E0FD7C007F147E16
:10035200001208DA900017E0FD7C007F157E001283
:1003620008DA900018E0FD7C007F167E001208DAA1
:10037200900019E0FD7C007F177E001208DA9000E1
:1003820001E0FCA3E0FD7F187E001208DA90000372
:10039200E0FCA3E0FD7F197E001208DA900005E080
:1003A200FCA3E0FD7F1A7E001208DA900007E0FC51
:1003B200A3E0FD7F1B7E001208DA900009E0FCA397
:1003C200E0FD7F1C7E001208DA900010E0FCA3E042
:0803D200FD7F237E000208DA22
:1007EE007FF47E011208B31206A01209A490001B1A
:1007FE00E06008120212E490001BF0B2A690001AFC
:10080E00E06004C2958002D29512072912003812B8
:04081E00003980D944
:10091F00EF1FAC0670011E4C6010900043E004F016
:0A092F0070EE900042E004F080E654
:01093900229B
:0808B300900040EEF0A3EFF00D
:1008BB00E4FBFAD3900041E09B900040E09A400E9D
:0E08CB007FDE7E0112091F0BBB00010A80E5D3
:0108D90022FC
:1003DA009000387401F07F0A7E001208B37FC87E4D
:1003EA0000120953EF64EE600302050EFFFE1209C4
:1003FA0053900013EFF07F017E001209539000140E
:10040A00EFF07F027E00120953900015EFF07F0390
:10041A007E00120953900016EFF07F047E00120945
:10042A0053900017EFF07F057E00120953900018D1
:10043A00EFF07F067E00120953900019EFF07F1447
:10044A007E00120953EF7F00FEC007C0067F157EAB
:10045A0000120953EFFDD0E0FFD0E04D900001CF2C
:10046A00F0A3EFF07F167E00120953EF7F00FEC063
:10047A0007C0067F177E00120953EFFDD0E0FFD0B8
:10048A00E04D900003CFF0A3EFF07F187E00120931
:10049A0053EF7F00FEC007C0067F197E0012095382
:1004AA00EFFDD0E0FFD0E04D900005CFF0A3EFF0D4
:1004BA007F1A7E00120953EF7F00FEC007C0067F35
:1004CA001B7E00120953EFFDD0E0FFD0E04D9000F3
:1004DA0007CFF0A3EFF07F1C7E00120953EF7F00D5
:1004EA00FEC007C0067F1D7E00120953EFFDD0E053
:1004FA00FFD0E04D900009CFF0A3EFF090003874E0
:0E050A0001F08005E4900038F0900038E0FF2A
:0105180022C0
:1006A0009000257401F0E490001AF0900012F09090
:1006B000001CF0A3F0A3F0A3F0A3F0A3F0A3F0A319
:1006C000F0A3F0900000F090000BF0A3F0A3F0A3D3
:1006D000F0A3F01203DAEF70439000137420F0A33C
:1006E000742BF0A37437F0A37441F0A3744BF0A300
:1006F0007457F0A37463F0900001E4F0A3743CF02D
:10070000A3E4F0A37446F0A3E4F0A37450F0A3E4D0
:10071000F0A3745AF0A3E4F0A37464F0E490001022
:09072000F0A3F090001B04F0228C
:1005190090003F7401F0C2AF7F0A7E001208B3E475
:10052900FFFE12096B900013E0FDE4FFFE12093A89
:10053900900014E0FD7F017E0012093A900015E059
:10054900FD7F027E0012093A900016E0FD7F037ECE
:100559000012093A900017E0FD7F047E0012093A63
:10056900900018E0FD7F057E0012093A900019E01D
:10057900FD7F067E0012093A900001E0FD7F147E9E
:100589000012093A900001A3E0FD7F157E001209CF
:100599003A900003E0FD7F167E0012093A900003AD
:1005A900A3E0FD7F177E0012093A900005E0FD7F68
:1005B900187E0012093A900005A3E0FD7F197E001C
:1005C90012093A900007E0FD7F1A7E0012093A905D
:1005D9000007A3E0FD7F1B7E0012093A900009E0A5
:1005E900FD7F1C7E0012093A900009A3E0FD7F1DE2
:1005F9007E0012093A7DEE7FC87E0012093AE49026
:0A060900001BF0D2AF90003FE0FFAD
:0106130022C4
:10098000AE071FEE600DE4FCFD0DED70010C4C6038
:03099000EF80F6FF
:010993002241
:0D09B300E4F5C7F5C5F5C675C380F5C4228F
:1009530075C78375C5018FC4EEF5C375C65A75C6D1
:07096300A500AFC21209B3A9
:01096A00226A
:10093A0075C78375C5028FC4EEF5C3AF058FC2753F
:09094A00C65A75C6A5000209B3E6
:10096B0075C78375C5038FC4EEF5C375C65A75C6B7
:05097B00A5000209B314
:10000300C1004F0028FFFFFFFFFFFFFFFFFFFFFFC0
:10001300FFFFFFFF4100370041002700410026009A
:0F09A400759A50759CFD758E1475AF01D2AF22F8
:030043000208555B
:10085500C0E0C0F0C083C082C0D075D008E59A3032
:10086500E008539AFEAF9B120793E59A30E10553D2
:0F0875009AFDC201D0D0D082D083D0F0D0E03233
:070994007F5A12099B7FA5A9
:09099B002001FDEFD201F59B22C1
:10082200900048EBF0A3EAF0A3E9F0900048E0FB67
:10083200A3E0FAA3E0F91208846017900048A3E449
:1008420075F00112089DA9F0FA120884FF12099BA3
:0308520080D92228
:1008DA00AB07AA061209947F0512099B7F821209A7
:1008EA009BEAFF12099BAF0312099BECFF12099BBB
:0508FA00AF0502099B9F
:1008FF00AD07AC061209947F0412099B7F80120981
:10090F009B7F0312099BECFF12099BAF0502099B0A
:10079300900037E014601114601614602224037073
:1007A30043EF645A70448010EFB4A502800A803589
:1007B300900026EFF0E4A3F0900037E004F02290DD
:1007C3000027E02428F582E43400F583EFF090005D
:1007D30027E004F0900026E0FFA3E0C39F400B1244
:0B07E3000046800100E4900037F02287
:1000460090002CE0FEA3E0FDEDFF90003DEEF0A356
:10005600EFF090001B7401F090002AE0FF701790FB
:100066000025E06003B402069000250201FEE4903C
:100076000025F002020FEFB4011390001AE070059C
:1000860004F002020FE490001AF002020F90002A18
:10009600E0B4110B90003DA3E090001302018190A3
:1000A600002AE0B4120B90003DA3E0900014020178
:1000B6008190002AE0B4130B90003DA3E090001558
:1000C60002018190002AE0B4140B90003DA3E09059
:1000D600001602018190002AE0B4150B90003DA3A2
:1000E600E090001702018190002AE0B4160B900000
:1000F6003DA3E090001802018190002AE0B4170A9F
:1001060090003DA3E0900019807190002AE0B41899
:100116001090003DE0FFA3E0900001CFF0A3EF8038
:100126005A90002AE0B4191090003DE0FFA3E09039
:100136000003CFF0A3EF804390002AE0B41A10909A
:10014600003DE0FFA3E0900005CFF0A3EF802C90E8
:10015600002AE0B41B1090003DE0FFA3E0900007EA
:10016600CFF0A3EF801590002AE0B41C1590003D57
:10017600E0FFA3E0900009CFF0A3EFF0120519020B
:10018600020F90002AE0FFB41D09E4900010F0A3CE
:10019600F08076EFB41E0F90000BE06004E4F08070
:1001A6006890000B805290002AE0FFB41F0F900069
:1001B6000CE06004E4F0805190000C803BEFB4202A
:1001C6000F90000DE06004E4F0803E90000D802862
:1001D60090002AE0FFB4210F90000EE06004E4F0E6
:1001E600802790000E8011EFB4221290000FE0607D
:1001F60004E4F0801490000F7401F0800C90002A43
:0B020600E0B42405E4900012F0D200E8
:0102110022CA
:0400230041004B004D
:1007290090004BE014601714602114604F2403708B
:100739005730A20320A35290004B7401F02230A23B
:100749000320A33E90004B7402F02220A2109000D7
:1007590025E0B401097403F090001B7401F020A393
:10076900149000257401F0D290D291D2A4D2A5D2CE
:100779009490001BF090004B7403F02230A20A30D1
:0A078900A307E490004BF0220022C9
:10002700410045144100471441004614410044145F
:0100380022A5
:0100390022A4
:100620000207EEE493A3F8E493A34003F68001F2FB
:1006300008DFF48029E493A3F85407240CC8C333DB
:10064000C4540F4420C8834004F456800146F6DFAA
:10065000E4800B0102040810204080900003E47E37
:10066000019360BCA3FF543F30E509541FFEE4939F
:10067000A360010ECF54C025E060A840B8E493A366
:10068000FAE493A3F8E493A3C8C582C8CAC583CA91
:10069000F0A3C8C582C8CAC583CADFE9DEE780BE49
:0100370000C8
:10088400BB010689828A83E0225002E722BBFE0272
:09089400E32289828A83E49322A5
:10089D00A3F8E0C5F025F0F0E5821582700215830E
:0608AD00E0C838F0E8226B
:00000001FF
