:03000000020B658B
:0C0B6500787FE4F6D8FD758120020BAC0F
:10051B00900025E0FD7C00E4FFFE120E54900012CB
:10052B00E07012900025E06003B402047F028007A4
:10053B00E4FFFE80047F087E00120E7990001AE023
:10054B00FD7C007F017E00120E5490001CE0FD7CB0
:10055B00007F027E00120E5490001DE0FD7C007F98
:10056B00037E00120E5490001EE0FD7C007F047E83
:10057B0000120E5490001FE0FD7C007F057E0012E0
:10058B000E54900020E0FD7C007F067E00120E547E
:10059B00900021E0FD7C007F077E00120E5490003E
:1005AB0022E0FD7C007F087E00120E54900023E0B9
:1005BB00FD7C007F097E00120E54900024E0FD7C30
:1005CB00007F0A7E00120E54900000E0FD7C007F3D
:1005DB000B7E00120E5490000BE0FD7C007F0C7E16
:1005EB0000120E5490000CE0FD7C007F0D7E00127B
:1005FB000E5490000DE0FD7C007F0E7E00120E5419
:10060B0090000EE0FD7C007F0F7E00120E549000D8
:10061B000FE0FD7C007F107E00120E54900013E063
:10062B00FD7C007F117E00120E54900014E0FD7CC7
:10063B00007F127E00120E54900015E0FD7C007FAF
:10064B00137E00120E54900016E0FD7C007F147E8A
:10065B0000120E54900017E0FD7C007F157E0012F7
:10066B000E54900018E0FD7C007F167E00120E5495
:10067B00900019E0FD7C007F177E00120E54900055
:10068B0001E0FCA3E0FD7F187E00120E54900003E6
:10069B00E0FCA3E0FD7F197E00120E54900005E0F4
:1006AB00FCA3E0FD7F1A7E00120E54900007E0FCC5
:1006BB00A3E0FD7F1B7E00120E54900009E0FCA30B
:1006CB00E0FD7F1C7E00120E54900010E0FCA3E0B6
:0806DB00FD7F237E00020E5496
:1006E30020801190001CE0700590001B04F0900026
:1006F3001C7401F030801290001CE0B401069000DD
:100703001B7401F0E490001CF020811190001DE0A7
:10071300700590001B04F090001D7401F0308112ED
:1007230090001DE0B4010690001B7401F0E49000FA
:100733001DF020821190001EE0700590001B04F054
:1007430090001E7401F030821290001EE0B4010686
:1007530090001B7401F0E490001EF02083119000C0
:100763001FE0700590001B04F090001F7401F0302F
:10077300831290001FE0B4010690001B7401F0E4A3
:1007830090001FF0208411900020E0700590001B62
:1007930004F09000207401F0308412900020E0B443
:1007A300010690001B7401F0E4900020F0208511F5
:1007B300900021E0700590001B04F090002174016B
:1007C300F0308512900021E0B4010690001B740103
:1007D300F0E4900021F0208611900022E070059053
:1007E300001B04F09000227401F030861290002266
:1007F300E0B4010690001B7401F0E4900022F020A5
:100803008711900023E0700590001B04F0900023F3
:100813007401F0308712900023E0B4010690001BAE
:100823007401F0E4900023F020A011900024E07004
:100833000590001B04F09000247401F030A0129086
:100843000024E0B4010690001B7401F0E49000243E
:10085300F020A111900000E0700590001B04F090BF
:1008630000007401F030A112900000E0B401069082
:0B087300001B7401F0E4900000F02274
:100BF100E4900038F0A3F07FF47E01120E2D120C68
:100C010074120F1E7F107E0E120E99B2A6120AB830
:100C1100900038E004F0E0B40A2AE4F090004AE0E1
:100C210004F07006900049E004F0900039E004F00F
:100C3100E0B40A10E4F0900048E004F0700690007F
:100C410047E004F090001BE0600812051BE49000EF
:100C51001BF090001AE06004C2958002D295120642
:100C6100E3900025E0B4039C900012E0709612001E
:030C710046809129
:100E9900EF1FAC0670011E4C6010900045E004F095
:0A0EA90070EE900044E004F080E6D3
:010EB300221C
:080E2D00900042EEF0A3EFF08B
:100E3500E4FBFAD3900043E09B900042E09A400E19
:0E0E45007FDE7E01120E990BBB00010A80E5D4
:010E5300227C
:10087E0090003A7401F07F0A7E00120E2D7FC87E22
:10088E0000120ECDEF64EE60030209B2FFFE120EEF
:10089E00CD900013EFF07F017E00120ECD9000146C
:1008AE00EFF07F027E00120ECD900015EFF07F0369
:1008BE007E00120ECD900016EFF07F047E00120E19
:1008CE00CD900017EFF07F057E00120ECD90001830
:1008DE00EFF07F067E00120ECD900019EFF07F1420
:1008EE007E00120ECDEF7F00FEC007C0067F157E84
:1008FE0000120ECDEFFDD0E0FFD0E04D900001CF05
:10090E00F0A3EFF07F167E00120ECDEF7F00FEC03B
:10091E0007C0067F177E00120ECDEFFDD0E0FFD090
:10092E00E04D900003CFF0A3EFF07F187E00120E83
:10093E00CDEF7F00FEC007C0067F197E00120ECDE0
:10094E00EFFDD0E0FFD0E04D900005CFF0A3EFF02B
:10095E007F1A7E00120ECDEF7F00FEC007C0067F0D
:10096E001B7E00120ECDEFFDD0E0FFD0E04D9000CB
:10097E0007CFF0A3EFF07F1C7E00120ECDEF7F00AD
:10098E00FEC007C0067F1D7E00120ECDEFFDD0E02B
:10099E00FFD0E04D900009CFF0A3EFF090003A7435
:0E09AE0001F08005E490003AF090003AE0FF7E
:0109BC002218
:100C74009000257401F0E490001AF0900012F090B6
:100C8400001CF0A3F0A3F0A3F0A3F0A3F0A3F0A33F
:100C9400F0A3F0900000F090000BF0A3F0A3F0A3F9
:100CA400F0A3F012087EEF70379000137428F0A3BD
:100CB400F0A3F0A3F0A3F0A3F0A3F0900001E4F0FC
:100CC400A3740AF0A3E4F0A3740FF0A3E4F0A374F4
:100CD40014F0A3E4F0A37419F0A3E4F0A3741EF0D9
:0D0CE400E4900010F0A3F090001B04F0223B
:1009BD009000417401F0C2AF7F0A7E00120E2DE44B
:1009CD00FFFE120EE5900013E0FDE4FFFE120EB4E3
:1009DD00900014E0FD7F017E00120EB4900015E032
:1009ED00FD7F027E00120EB4900016E0FD7F037EA7
:1009FD0000120EB4900017E0FD7F047E00120EB4BD
:100A0D00900018E0FD7F057E00120EB4900019E0F5
:100A1D00FD7F067E00120EB4900001E0FD7F147E76
:100A2D0000120EB4900001A3E0FD7F157E00120EA2
:100A3D00B4900003E0FD7F167E00120EB49000030B
:100A4D00A3E0FD7F177E00120EB4900005E0FD7F40
:100A5D00187E00120EB4900005A3E0FD7F197E00F4
:100A6D00120EB4900007E0FD7F1A7E00120EB490B6
:100A7D000007A3E0FD7F1B7E00120EB4900009E07D
:100A8D00FD7F1C7E00120EB4900009A3E0FD7F1DBA
:100A9D007E00120EB47DEE7FC87E00120EB4E4907F
:0A0AAD00001BF0D2AF900041E0FF03
:010AB700221C
:100EFA00AE071FEE600DE4FCFD0DED70010C4C60B9
:030F0A00EF80F67F
:010F0D0022C1
:0D003600E4F5C7F5C5F5C675C380F5C42215
:100ECD0075C78375C5018FC4EEF5C375C65A75C652
:070EDD00A500AFC2120036B0
:010EE40022EB
:100EB40075C78375C5028FC4EEF5C3AF058FC275C0
:090EC400C65A75C6A500020036ED
:100EE50075C78375C5038FC4EEF5C375C65A75C638
:050EF500A5000200361B
:100D9C00C1004F0028FFFFFFFFFFFFFFFFFFFFFF1A
:100DAC00FFFFFFFF410037004100270041002600F4
:0F0F1E00759A50759CFD758E1475AF01D2AF2278
:03004300020DCFDC
:100DCF00C0E0C0F0C083C082C0D075D008E59A30B3
:100DDF00E008539AFEAF9B120CF1E59A30E10553F0
:0F0DEF009AFDC201D0D0D082D083D0F0D0E032B4
:070F0E007F5A120F157FA5A9
:090F15002001FDEFD201F59B2241
:1000030090004BEBF0A3EAF0A3E9F090004BE0FB88
:10001300A3E0FAA3E0F9120DFE601790004BA3E4EE
:1000230075F001120E17A9F0FA120DFEFF120F154B
:0300330080D9224F
:100E5400AB07AA06120F0E7F05120F157F82120F21
:100E640015EAFF120F15AF03120F15ECFF120F1541
:050E7400AF05020F159F
:100E7900AD07AC06120F0E7F04120F157F80120FFB
:100E8900157F03120F15ECFF120F15AF05020F1591
:100CF100900037E014601114601614602224037010
:100D010043EF645A70448010EFB4A502800A803525
:100D1100900026EFF0E4A3F0900037E004F0229079
:100D21000027E02428F582E43400F583EFF09000F9
:100D310027E004F0900026E0FFA3E0C39F400B12E0
:0B0D4100031E800100E4900037F02248
:100D4C0020900890000B7401F08005E490000BF0EB
:100D5C0020910890000C7401F08005E490000CF0D8
:100D6C0020A40890000D7401F08005E490000DF0B3
:100D7C0020A50890000E7401F08005E490000EF0A0
:100D8C0020940790000F7401F022E490000FF022E1
:10031E0090002CE0FEA3E0FDEDFF90003FEEF0A379
:10032E00EFF090001B7401F090002AE0FF701A901D
:10033E000025E06003B402099000257401F0020567
:10034E0018E4900025F0020518EFB4011390001A7E
:10035E00E0700504F0020518E490001AF00205188A
:10036E0090002AE0B4110B90003FA3E0900013021E
:10037E00045C90002AE0B4120B90003FA3E09000C2
:10038E001402045C90002AE0B4130B90003FA3E02B
:10039E0090001502045C90002AE0B4140B90003F0C
:1003AE00A3E090001602045C90002AE0B4150B90B6
:1003BE00003FA3E090001702045C90002AE0B41600
:1003CE000B90003FA3E090001802045C90002AE01E
:1003DE00B4170A90003FA3E0900019807190002A94
:1003EE00E0B4181090003FE0FFA3E0900001CFF0C2
:1003FE00A3EF805A90002AE0B4191090003FE0FF5E
:10040E00A3E0900003CFF0A3EF804390002AE0B466
:10041E001A1090003FE0FFA3E0900005CFF0A3EF8D
:10042E00802C90002AE0B41B1090003FE0FFA3E068
:10043E00900007CFF0A3EF801590002AE0B41C15B2
:10044E0090003FE0FFA3E0900009CFF0A3EFF01281
:10045E0009BD02051890002AE0FFB41D0AE49000C1
:10046E0010F0A3F0020518EFB41E1890000BE06018
:10047E0007E4F0D29002051890000B7401F0C290C0
:10048E0002051890002AE0FFB41F1690000CE060E1
:10049E0006E4F0D291807390000C7401F0C291804A
:1004AE0069EFB4201690000DE06006E4F0D2A4804F
:1004BE005990000D7401F0C2A4804F90002AE0FF05
:1004CE00B4211690000EE06006E4F0D2A5803B90B9
:1004DE00000E7401F0C2A58031EFB4221690000F09
:1004EE00E06006E4F0D294802190000F7401F0C217
:1004FE0094801790002AE0B42410E4900012F0903B
:0C050E000047F0A3F0D296120D4CD20072
:01051A0022BE
:040DBC0041004E00A4
:100AB80090004EE014602014602A147003020B5753
:100AC80024036003020B6330A20630A303020B6405
:100AD80090004E7401F02230A20320A37890004EBB
:100AE8007402F02220A234900025E0B4012D740392
:100AF800F09000467401F0E490000BF090000CF0C8
:100B080090000DF090000EF090000FF0D290D2916E
:100B1800D2A4D2A5D29490001B04F020A32A90005E
:100B2800257401F0E490000BF090000CF090000D9B
:100B3800F090000EF090000FF0D290D291D2A4D293
:100B4800A5D29490001B04F090004E7403F022305C
:0D0B5800A20A30A307E490004EF022002214
:0E0DC000420049000042004700004100461476
:10004600900046E014B41000400302031D900061C6
:1000560075F003A4C58325F0C583730200910200E1
:10006600CB0200E502010A02012802014D02016BE2
:100076000201990201B80201E602020502023302F8
:1000860002560202820202AA0202E790001CE0B4B3
:10009600011890001EE0B40111900020E0B4010A9E
:1000A600900022E0B401030202B1900005E0FEA335
:1000B600E0FFD3900048E09F900047E09E50030287
:1000C600031D02018DD390004AE09428900049E078
:1000D6009400500302031DC29090000B02024E9042
:1000E600001DE0B401030202B1900001E0FEA3E0AE
:1000F600FFD3900048E09F900047E09E5003020324
:100106001D020227900013E0FFD390004AE09F9063
:100116000049E09400500302031DC29190000C02B6
:10012600024E90001FE0B401030202B1900003E00A
:10013600FEA3E0FFD3900048E09F900047E09E506A
:100146000302031D0201DA900014E0FFD390004A77
:10015600E09F900049E09400500302031DC2A49062
:10016600000D02024E900021E0B401030202B1909C
:100176000005E0FEA3E0FFD3900048E09F90004713
:10018600E09E500302031D9000127401F090000DD2
:100196000202DD900015E0FFD390004AE09F900038
:1001A60049E09400500302031DD291E490000C0232
:1001B600029E90001EE0B401030202B1900003E02B
:1001C600FEA3E0FFD3900048E09F900047E09E50DA
:1001D6000302031D9000127401F090000C0202DD70
:1001E600900016E0FFD390004AE09F900049E0940B
:1001F60000500302031DD290E490000B02029E9071
:10020600001CE0B401030202B1900001E0FEA3E08D
:10021600FFD3900048E09F900047E09E5003020302
:100226001D9000127401F090000B0202DD90001781
:10023600E0FFD390004AE09F900049E0940050030D
:1002460002031DC2A590000E7401F090001B804DA4
:10025600900023E0B401028052900007E0FEA3E084
:10026600FFD3900048E09F900047E09E50030203B2
:100276001D9000127401F090000E805B900018E053
:10028600FFD390004AE09F900049E094005003029B
:10029600031DD2A5E490000EF090001B04F0E4903C
:1002A6000047800B900022E0B4010EE4900049F074
:1002B600A3F0900046E004F022900007E0FEA3E0E1
:1002C600FFD3900048E09F900047E09E4049900091
:1002D600127401F090000E04F0C29690001B14F008
:1002E60022900019E0FFD390004AE09F900049E079
:1002F60094004023D2A4E490000DF090001B04F07B
:10030600900046F0E4A3F0A3F0900011E004F07032
:0803160006900010E004F02243
:100B7100020BF1E493A3F8E493A34003F68001F29E
:100B810008DFF48029E493A3F85407240CC8C33385
:100B9100C4540F4420C8834004F456800146F6DF54
:100BA100E4800B0102040810204080900D9CE47E3B
:100BB100019360BCA3FF543F30E509541FFEE49349
:100BC100A360010ECF54C025E060A840B8E493A310
:100BD100FAE493A3F8E493A3C8C582C8CAC583CA3B
:100BE100F0A3C8C582C8CAC583CADFE9DEE780BEF3
:010DCE000024
:100DFE00BB010689828A83E0225002E722BBFE02F3
:090E0E00E32289828A83E4932225
:100E1700A3F8E0C5F025F0F0E5821582700215838E
:060E2700E0C838F0E822EB
:00000001FF
