:03000000020B07E9
:0C0B0700787FE4F6D8FD758120020B4ECB
:10031E00900025E0FD7C00E4FFFE120DF690001229
:10032E00E07012900025E06003B402047F028007A3
:10033E00E4FFFE80047F087E00120E1B90001AE080
:10034E00FD7C007F017E00120DF690001CE0FD7C0E
:10035E00007F027E00120DF690001DE0FD7C007FF6
:10036E00037E00120DF690001EE0FD7C007F047EE1
:10037E0000120DF690001FE0FD7C007F057E00123E
:10038E000DF6900020E0FD7C007F067E00120DF63B
:10039E00900021E0FD7C007F077E00120DF690009C
:1003AE0022E0FD7C007F087E00120DF6900023E017
:1003BE00FD7C007F097E00120DF6900024E0FD7C8E
:1003CE00007F0A7E00120DF6900000E0FD7C007F9B
:1003DE000B7E00120DF690000BE0FD7C007F0C7E74
:1003EE0000120DF690000CE0FD7C007F0D7E0012D9
:1003FE000DF690000DE0FD7C007F0E7E00120DF6D6
:10040E0090000EE0FD7C007F0F7E00120DF6900036
:10041E000FE0FD7C007F107E00120DF6900013E0C1
:10042E00FD7C007F117E00120DF6900014E0FD7C25
:10043E00007F127E00120DF6900015E0FD7C007F0D
:10044E00137E00120DF6900016E0FD7C007F147EE8
:10045E0000120DF6900017E0FD7C007F157E001255
:10046E000DF6900018E0FD7C007F167E00120DF652
:10047E00900019E0FD7C007F177E00120DF69000B3
:10048E0001E0FCA3E0FD7F187E00120DF690000344
:10049E00E0FCA3E0FD7F197E00120DF6900005E052
:1004AE00FCA3E0FD7F1A7E00120DF6900007E0FC23
:1004BE00A3E0FD7F1B7E00120DF6900009E0FCA369
:1004CE00E0FD7F1C7E00120DF6900010E0FCA3E014
:0804DE00FD7F237E00020DF6F4
:1006850020801190001CE0700590001B04F0900084
:100695001C7401F030801290001CE0B4010690003B
:1006A5001B7401F0E490001CF020811190001DE006
:1006B500700590001B04F090001D7401F03081124C
:1006C50090001DE0B4010690001B7401F0E4900059
:1006D5001DF020821190001EE0700590001B04F0B3
:1006E50090001E7401F030821290001EE0B40106E5
:1006F50090001B7401F0E490001EF020831190001F
:100705001FE0700590001B04F090001F7401F0308D
:10071500831290001FE0B4010690001B7401F0E401
:1007250090001FF0208411900020E0700590001BC0
:1007350004F09000207401F0308412900020E0B4A1
:10074500010690001B7401F0E4900020F020851153
:10075500900021E0700590001B04F09000217401C9
:10076500F0308512900021E0B4010690001B740161
:10077500F0E4900021F0208611900022E0700590B1
:10078500001B04F09000227401F0308612900022C4
:10079500E0B4010690001B7401F0E4900022F02003
:1007A5008711900023E0700590001B04F090002352
:1007B5007401F0308712900023E0B4010690001B0D
:1007C5007401F0E4900023F020A011900024E07063
:1007D5000590001B04F09000247401F030A01290E5
:1007E5000024E0B4010690001B7401F0E49000249D
:1007F500F020A111900000E0700590001B04F0901E
:1008050000007401F030A112900000E0B4010690E0
:0B081500001B7401F0E4900000F022D2
:100B9300E4900038F0A3F07FF47E01120DCF120C25
:100BA30016120EC07F107E0E120E3BB2A6120A5A08
:100BB300900038E004F0E0B40A2AE4F0900043E047
:100BC30004F07006900042E004F0900039E004F075
:100BD300E0B40A10E4F0900041E004F070069000E5
:100BE30040E004F090001BE0600812031EE4900054
:100BF3001BF090001AE06004C2958002D2951206A1
:100C030085900025E0B4039C900012E070961200DA
:030C130046809187
:100E3B00EF1FAC0670011E4C601090003EE004F0FA
:0A0E4B0070EE90003DE004F080E638
:010E5500227A
:080DCF0090003BEEF0A3EFF0F1
:100DD700E4FBFAD390003CE09B90003BE09A400E86
:0E0DE7007FDE7E01120E3B0BBB00010A80E591
:010DF50022DB
:1008200090003A7401F07F0A7E00120DCF7FC87EDF
:1008300000120E6FEF64EE6003020954FFFE120E09
:100840006F900013EFF07F017E00120E6F90001486
:10085000EFF07F027E00120E6F900015EFF07F0325
:100860007E00120E6F900016EFF07F047E00120ED5
:100870006F900017EFF07F057E00120E6F9000184A
:10088000EFF07F067E00120E6F900019EFF07F14DC
:100890007E00120E6FEF7F00FEC007C0067F157E40
:1008A00000120E6FEFFDD0E0FFD0E04D900001CFC1
:1008B000F0A3EFF07F167E00120E6FEF7F00FEC0F8
:1008C00007C0067F177E00120E6FEFFDD0E0FFD04D
:1008D000E04D900003CFF0A3EFF07F187E00120EE2
:1008E0006FEF7F00FEC007C0067F197E00120E6FFB
:1008F000EFFDD0E0FFD0E04D900005CFF0A3EFF08A
:100900007F1A7E00120E6FEF7F00FEC007C0067FC9
:100910001B7E00120E6FEFFDD0E0FFD0E04D900087
:1009200007CFF0A3EFF07F1C7E00120E6FEF7F0069
:10093000FEC007C0067F1D7E00120E6FEFFDD0E0E7
:10094000FFD0E04D900009CFF0A3EFF090003A7493
:0E09500001F08005E490003AF090003AE0FFDC
:01095E002276
:100C16009000257401F0E490001AF0900012F09014
:100C2600001CF0A3F0A3F0A3F0A3F0A3F0A3F0A39D
:100C3600F0A3F0900000F090000BF0A3F0A3F0A357
:100C4600F0A3F0120820EF70379000137428F0A379
:100C5600F0A3F0A3F0A3F0A3F0A3F0900001E4F05A
:100C6600A3740AF0A3E4F0A3740FF0A3E4F0A37452
:100C760014F0A3E4F0A37419F0A3E4F0A3741EF037
:0D0C8600E4900010F0A3F090001B04F02299
:10095F009000477401F0C2AF7F0A7E00120DCFE402
:10096F00FFFE120E87900013E0FDE4FFFE120E56FD
:10097F00900014E0FD7F017E00120E56900015E0EE
:10098F00FD7F027E00120E56900016E0FD7F037E63
:10099F0000120E56900017E0FD7F047E00120E56D7
:1009AF00900018E0FD7F057E00120E56900019E0B2
:1009BF00FD7F067E00120E56900001E0FD7F147E33
:1009CF0000120E56900001A3E0FD7F157E00120E5F
:1009DF0056900003E0FD7F167E00120E5690000326
:1009EF00A3E0FD7F177E00120E56900005E0FD7FFD
:1009FF00187E00120E56900005A3E0FD7F197E00B1
:100A0F00120E56900007E0FD7F1A7E00120E5690D0
:100A1F000007A3E0FD7F1B7E00120E56900009E039
:100A2F00FD7F1C7E00120E56900009A3E0FD7F1D76
:100A3F007E00120E567DEE7FC87E00120E56E49099
:0A0A4F00001BF0D2AF900047E0FF5B
:010A5900227A
:100E9C00AE071FEE600DE4FCFD0DED70010C4C6017
:030EAC00EF80F6DE
:010EAF002220
:0D003600E4F5C7F5C5F5C675C380F5C42215
:100E6F0075C78375C5018FC4EEF5C375C65A75C6B0
:070E7F00A500AFC21200360E
:010E86002249
:100E560075C78375C5028FC4EEF5C3AF058FC2751E
:090E6600C65A75C6A5000200364B
:100E870075C78375C5038FC4EEF5C375C65A75C696
:050E9700A50002003679
:100D3E00C1004F0028FFFFFFFFFFFFFFFFFFFFFF78
:100D4E00FFFFFFFF41003700410027004100260052
:0F0EC000759A50759CFD758E1475AF01D2AF22D7
:03004300020D713A
:100D7100C0E0C0F0C083C082C0D075D008E59A3011
:100D8100E008539AFEAF9B120C93E59A30E10553AC
:0F0D91009AFDC201D0D0D082D083D0F0D0E03212
:070EB0007F5A120EB77FA567
:090EB7002001FDEFD201F59B22A0
:10000300900044EBF0A3EAF0A3E9F0900044E0FB96
:10001300A3E0FAA3E0F9120DA06017900044A3E453
:1000230075F001120DB9A9F0FA120DA0FF120EB767
:0300330080D9224F
:100DF600AB07AA06120EB07F05120EB77F82120E3F
:100E0600B7EAFF120EB7AF03120EB7ECFF120EB71A
:050E1600AF05020EB75C
:100E1B00AD07AC06120EB07F04120EB77F80120E18
:100E2B00B77F03120EB7ECFF120EB7AF05020EB76A
:100C9300900037E01460111460161460222403706E
:100CA30043EF645A70448010EFB4A502800A803584
:100CB300900026EFF0E4A3F0900037E004F02290D8
:100CC3000027E02428F582E43400F583EFF0900058
:100CD30027E004F0900026E0FFA3E0C39F400B123F
:0B0CE30004E6800100E4900037F022DE
:100CEE0020900890000B7401F08005E490000BF04A
:100CFE0020910890000C7401F08005E490000CF037
:100D0E0020A40890000D7401F08005E490000DF011
:100D1E0020A50890000E7401F08005E490000EF0FE
:100D2E0020940790000F7401F022E490000FF0223F
:1004E60090002CE0FEA3E0FDEDFF90001B7401F0F0
:1004F60090002AE0FD701A900025E06003B402091E
:100506009000257401F0020682E4900025F00206B0
:1005160082EDB4011390001AE0700504F002068221
:10052600E490001AF002068290002AE0FDB4110859
:10053600900013EFF0020682EDB41208900014EF5B
:10054600F002068290002AE0FDB41308900015EF31
:10055600F0020682EDB41408900016EFF00206824F
:1005660090002AE0FDB41508900017EFF00206820D
:10057600EDB41608900018EFF002068290002AE00B
:10058600FDB41708900019EFF0020682EDB41805C5
:10059600900001802A90002AE0FDB419059000031E
:1005A600801DEDB41A05900005801490002AE0FD28
:1005B600B41B059000078007EDB41C0B900009EEF4
:1005C600F0A3EFF002068290002AE0FFB41D0AE4D1
:1005D600900010F0A3F0020682EFB41E1890000BF4
:1005E600E06007E4F0D29002068290000B7401F0FE
:1005F600C29002068290002AE0FFB41F1690000CFB
:10060600E06006E4F0D291807390000C7401F0C2B1
:10061600918069EFB4201690000DE06006E4F0D2F8
:10062600A4805990000D7401F0C2A4804F90002A56
:10063600E0FFB4211690000EE06006E4F0D2A5803B
:100646003B90000E7401F0C2A58031EFB4221690E3
:10065600000FE06006E4F0D294802190000F740150
:10066600F0C294801790002AE0B42410E49000129F
:0E067600F0900040F0A3F0D296120CEED200ED
:010684002253
:040D5E004100480008
:100A5A00900048E014602014602A147003020AF916
:100A6A0024036003020B0530A20630A303020B061F
:100A7A009000487401F02230A20320A37890004825
:100A8A007402F02220A234900025E0B4012D7403F0
:100A9A00F090003F7401F0E490000BF090000CF02D
:100AAA0090000DF090000EF090000FF0D290D291CD
:100ABA00D2A4D2A5D29490001B04F020A32A9000BD
:100ACA00257401F0E490000BF090000CF090000DFA
:100ADA00F090000EF090000FF0D290D291D2A4D2F2
:100AEA00A5D29490001B04F09000487403F02230C1
:0D0AFA00A20A30A307E4900048F022002279
:0E0D62004200420000420040000041003F14E9
:1000460090003FE014B41000400302031D900061CD
:1000560075F003A4C58325F0C583730200910200E1
:10006600CB0200E502010A02012802014D02016BE2
:100076000201990201B80201E602020502023302F8
:1000860002560202820202AA0202E790001CE0B4B3
:10009600011890001EE0B40111900020E0B4010A9E
:1000A600900022E0B401030202B1900005E0FEA335
:1000B600E0FFD3900041E09F900040E09E50030295
:1000C600031D02018DD3900043E09428900042E086
:1000D6009400500302031DC29090000B02024E9042
:1000E600001DE0B401030202B1900001E0FEA3E0AE
:1000F600FFD3900041E09F900040E09E5003020332
:100106001D020227900013E0FFD3900043E09F906A
:100116000042E09400500302031DC29190000C02BD
:10012600024E90001FE0B401030202B1900003E00A
:10013600FEA3E0FFD3900041E09F900040E09E5078
:100146000302031D0201DA900014E0FFD39000437E
:10015600E09F900042E09400500302031DC2A49069
:10016600000D02024E900021E0B401030202B1909C
:100176000005E0FEA3E0FFD3900041E09F90004021
:10018600E09E500302031D9000127401F090000DD2
:100196000202DD900015E0FFD3900043E09F90003F
:1001A60042E09400500302031DD291E490000C0239
:1001B600029E90001EE0B401030202B1900003E02B
:1001C600FEA3E0FFD3900041E09F900040E09E50E8
:1001D6000302031D9000127401F090000C0202DD70
:1001E600900016E0FFD3900043E09F900042E09419
:1001F60000500302031DD290E490000B02029E9071
:10020600001CE0B401030202B1900001E0FEA3E08D
:10021600FFD3900041E09F900040E09E5003020310
:100226001D9000127401F090000B0202DD90001781
:10023600E0FFD3900043E09F900042E0940050031B
:1002460002031DC2A590000E7401F090001B804DA4
:10025600900023E0B401028052900007E0FEA3E084
:10026600FFD3900041E09F900040E09E50030203C0
:100276001D9000127401F090000E805B900018E053
:10028600FFD3900043E09F900042E09400500302A9
:10029600031DD2A5E490000EF090001B04F0E4903C
:1002A6000040800B900022E0B4010EE4900042F082
:1002B600A3F090003FE004F022900007E0FEA3E0E8
:1002C600FFD3900041E09F900040E09E404990009F
:1002D600127401F090000E04F0C29690001B14F008
:1002E60022900019E0FFD3900043E09F900042E087
:1002F60094004023D2A4E490000DF090001B04F07B
:1003060090003FF0E4A3F0A3F0900011E004F07039
:0803160006900010E004F02243
:100B1300020B93E493A3F8E493A34003F68001F25A
:100B230008DFF48029E493A3F85407240CC8C333E3
:100B3300C4540F4420C8834004F456800146F6DFB2
:100B4300E4800B0102040810204080900D3EE47EF7
:100B5300019360BCA3FF543F30E509541FFEE493A7
:100B6300A360010ECF54C025E060A840B8E493A36E
:100B7300FAE493A3F8E493A3C8C582C8CAC583CA99
:100B8300F0A3C8C582C8CAC583CADFE9DEE780BE51
:010D70000082
:100DA000BB010689828A83E0225002E722BBFE0251
:090DB000E32289828A83E4932284
:100DB900A3F8E0C5F025F0F0E582158270021583ED
:060DC900E0C838F0E8224A
:00000001FF
