:030000000201EA10
:0C01EA00787FE4F6D8FD75812002023118
:1000460090001EE0FD7C00E4FFFE1203F890001411
:10005600E0FD7C007F017E001203F8900015E0FDB4
:100066007C007F027E001203F8900016E0FD7C0003
:100076007F037E001203F8900017E0FD7C007F04EA
:100086007E001203F8900018E0FD7C007F057E00DC
:100096001203F8900019E0FD7C007F067E00120333
:1000A600F890001AE0FD7C007F077E001203F890AE
:1000B600001BE0FD7C007F087E001203F890001C08
:1000C600E0FD7C007F097E001203F890001DE0FD34
:1000D6007C007F0A7E001203F8900000E0FD7C00A1
:1000E6007F0B7E001203F8900006E0FD7C007F0C7B
:1000F6007E001203F8900007E0FD7C007F0D7E0075
:100106001203F8900008E0FD7C007F0E7E001203CB
:10011600F8900009E0FD7C007F0F7E001203F89046
:10012600000AE0FD7C007F107E001203F890000DAF
:10013600E0FD7C007F117E001203F890000EE0FDCA
:100146007C007F127E001203F890000FE0FD7C0019
:100156007F137E001203F8900010E0FD7C007F14F0
:100166007E001203F8900011E0FD7C007F157E00F2
:100176001203F8900012E0FD7C007F167E00120349
:10018600F8900013E0FD7C007F177E001203F890C4
:100196000001E0FD7C007F187E001203F89000024B
:1001A600E0FD7C007F197E001203F8900003E0FD5D
:1001B6007C007F1A7E001203F8900004E0FD7C00AC
:1001C6007F1B7E001203F8900005E0FD7C007F1C7B
:1001D6007E001203F890000BE0FCA3E0FD7F237E77
:0401E600000203F818
:10044B0012050C1202D1120046B2A71200091200BB
:0D045B000A1205317F647E0012042480E93E
:10046800EF1FAC0670011E4C6010900034E004F0E1
:0A04780070EE900033E004F080E61F
:010482002257
:08042400900031EEF0A3EFF0AF
:10042C00E4FBFAD3900032E09B900031E09A400E4E
:0E043C007FDE7E011204680BBB00010A80E522
:01044A00228F
:020003007F017B
:0100050022D8
:1002D10090001E7401F0E4900014F0A3F0A3F0A3C9
:1002E100F0A3F0A3F0A3F0A3F0A3F0A3F09000001B
:1002F100F0900006F0A3F0A3F0A3F0A3F090000D9E
:10030100F0A3F0A3F0A3F0A3F0A3F0A3F0900001F9
:10031100F0A3F0A3F0A3F0A3F090000BF0A3F02260
:020006007F0178
:0100080022D5
:1004F800AE071FEE600DE4FCFD0DED70010C4C60C5
:03050800EF80F68B
:01050B0022CD
:0D051B00E4F5C7F5C5F5C675C380F5C4222B
:1004B60075C78375C5018FC4EEF5C375C65A75C673
:0704C600A500AFC212051BE7
:0104CD00220C
:10049D0075C78375C5028FC4EEF5C3AF058FC275E1
:0904AD00C65A75C6A50002051B24
:1004CE0075C78375C5038FC4EEF5C375C65A75C659
:0504DE00A50002051B52
:10000E00C1004F0021FFFFFFFFFFFFFFFFFFFFFFBC
:10001E00FFFFFFFF410030004100200041001F00A4
:0F050C00759A50759CFD758E1475AF01D2AF2294
:0300430002039A1B
:10039A00C0E0C0F0C083C082C0D075D008E59A30F2
:1003AA00E008539AFEAF9B120276E59A30E10553B4
:0F03BA009AFDC201D0D0D082D083D0F0D0E032F3
:090528002001FDEFD201F59B2238
:1003670090003BEBF0A3EAF0A3E9F090003BE0FB41
:10037700A3E0FAA3E0F91203C9601790003BA3E4D6
:1003870075F0011203E2A9F0FA1203C9FF1205285A
:0303970080D922E8
:1003F800AB07AA067F5A1205287FA51205287F0594
:100408001205287F82120528EAFF120528AF031279
:0C0418000528ECFF120528AF050205289E
:10027600900030E01460111460161460222403709C
:1002860043EF645A70448010EFB4A502800A8035AB
:1002960090001FEFF0E4A3F0900030E004F022900D
:1002A6000020E02421F582E43400F583EFF090008D
:1002B60020E004F090001FE0FFA3E0C39F400B1274
:0B02C60004E3800100E4900030F0220F
:1004E300900025E0FEA3E0FDEDFF900035EEF0A3C4
:0404F300EFF0D20054
:0104F70022E2
:03000B00020321CC
:10032100C0E0C0F0C083C082C0D075D008758ACD4E
:10033100758CD490003E74FFF5F01203E245F07025
:100341001A90003EF0A37409F0B2A790001E30830A
:10035100057401F08002E4F0120009D0D0D082D0FF
:0603610083D0F0D0E03271
:10048300758E80758901758ACD758CD4D28CD2A96D
:0A049300D2AFE490003EF0A3F02287
:04002E00410040004D
:0100090022D4
:100032004100381441003A14410039144100371488
:01000A0022D3
:0105310022A7
:1001F60002044BE493A3F8E493A34003F68001F2D0
:1002060008DFF48029E493A3F85407240CC8C33309
:10021600C4540F4420C8834004F456800146F6DFD8
:10022600E4800B010204081020408090000EE47E5A
:10023600019360BCA3FF543F30E509541FFEE493CD
:10024600A360010ECF54C025E060A840B8E493A394
:10025600FAE493A3F8E493A3C8C582C8CAC583CABF
:10026600F0A3C8C582C8CAC583CADFE9DEE780BE77
:0100420000BD
:1003C900BB010689828A83E0225002E722BBFE0232
:0903D900E32289828A83E4932265
:1003E200A3F8E0C5F025F0F0E582158270021583CE
:0603F200E0C838F0E8222B
:00000001FF
