:030000000201EA10
:0C01EA00787FE4F6D8FD75812002023118
:1000460090001EE0FD7C00E4FFFE12043D900014CB
:10005600E0FD7C007F017E0012043D900015E0FD6E
:100066007C007F027E0012043D900016E0FD7C00BD
:100076007F037E0012043D900017E0FD7C007F04A4
:100086007E0012043D900018E0FD7C007F057E0096
:1000960012043D900019E0FD7C007F067E001204EC
:1000A6003D90001AE0FD7C007F077E0012043D9023
:1000B600001BE0FD7C007F087E0012043D90001CC2
:1000C600E0FD7C007F097E0012043D90001DE0FDEE
:1000D6007C007F0A7E0012043D900000E0FD7C005B
:1000E6007F0B7E0012043D900006E0FD7C007F0C35
:1000F6007E0012043D900007E0FD7C007F0D7E002F
:1001060012043D900008E0FD7C007F0E7E00120484
:100116003D900009E0FD7C007F0F7E0012043D90BB
:10012600000AE0FD7C007F107E0012043D90000D69
:10013600E0FD7C007F117E0012043D90000EE0FD84
:100146007C007F127E0012043D90000FE0FD7C00D3
:100156007F137E0012043D900010E0FD7C007F14AA
:100166007E0012043D900011E0FD7C007F157E00AC
:1001760012043D900012E0FD7C007F167E00120402
:100186003D900013E0FD7C007F177E0012043D9039
:100196000001E0FD7C007F187E0012043D90000205
:1001A600E0FD7C007F197E0012043D900003E0FD17
:1001B6007C007F1A7E0012043D900004E0FD7C0066
:1001C6007F1B7E0012043D900005E0FD7C007F1C35
:1001D6007E0012043D90000BE0FCA3E0FD7F237E31
:0401E6000002043DD2
:1004900012053A1202D112004612000912000A1285
:0B04A000055F7F647E0012046980EBA2
:1004AB00EF1FAC0670011E4C6010900034E004F09E
:0A04BB0070EE900033E004F080E6DC
:0104C5002214
:08046900900031EEF0A3EFF06A
:10047100E4FBFAD3900032E09B900031E09A400E09
:0E0481007FDE7E011204AB0BBB00010A80E59A
:01048F00224A
:020003007F017B
:0100050022D8
:1002D10090001E7401F0900014F0E4A3F0A3F0A3C9
:1002E100F0A3F0A3F0A3F0A3F0A3F0A3F09000001B
:1002F100F0900006F0A3F0A3F0A3F0A3F090000D9E
:10030100F0A3F0A3F0A3F0A3F0A3F0A3F0900001F9
:10031100F0A3F0A3F0A3F0A3F090000BF0A3F02260
:020006007F0178
:0100080022D5
:10052600AE071FEE600DE4FCFD0DED70010C4C6096
:03053600EF80F65D
:01053900229F
:0D054900E4F5C7F5C5F5C675C380F5C422FD
:1004F90075C78375C5018FC4EEF5C375C65A75C630
:07050900A500AFC212054975
:0105100022C8
:1004E00075C78375C5028FC4EEF5C3AF058FC2759E
:0904F000C65A75C6A500020549B3
:1005110075C78375C5038FC4EEF5C375C65A75C615
:05052100A500020549E0
:10000E00C1004F0021FFFFFFFFFFFFFFFFFFFFFFBC
:10001E00FFFFFFFF410030004100200041001F00A4
:0F053A00759A50759CFD758E1475AF01D2AF2266
:030043000203DFD6
:1003DF00C0E0C0F0C083C082C0D075D008E59A30AD
:1003EF00E008539AFEAF9B120276E59A30E105536F
:0F03FF009AFDC201D0D0D082D083D0F0D0E032AE
:090556002001FDEFD201F59B220A
:1003AC0090003BEBF0A3EAF0A3E9F090003BE0FBFC
:1003BC00A3E0FAA3E0F912040E601790003BA3E44B
:1003CC0075F001120427A9F0FA12040EFF1205565B
:0303DC0080D922A3
:10043D00AB07AA067F5A1205567FA51205567F05F2
:10044D001205567F82120556EAFF120556AF0312AA
:0C045D000556ECFF120556AF05020556CF
:10027600900030E01460111460161460222403709C
:1002860043EF645A70448010EFB4A502800A8035AB
:1002960090001FEFF0E4A3F0900030E004F022900D
:1002A6000020E02421F582E43400F583EFF090008D
:1002B60020E004F090001FE0FFA3E0C39F400B1274
:0B02C6000321800100E4900030F022D2
:10032100900025E0FEA3E0FDEDFF900035EEF0A387
:10033100EFF0900023E0FF701890001EE06003B41E
:10034100020890001E7401F0801AE490001EF080F3
:1003510013EFB4010F900014E0700404F08005E481
:06036100900014F0D20030
:010367002273
:03000B0002036885
:10036800C0E0C0F0C083C082C0D075D008758ACD07
:10037800758CD490003E74FFF5F012042745F07098
:100388001890003EF0A37409F090001E30830574A5
:1003980001F08002E4F0120009D0D0D082D083D0DE
:0403A800F0D0E0327F
:1004C600758E80758901758ACD758CD4D28CD2A92A
:0A04D600D2AFE490003EF0A3F02244
:04002E00410040004D
:0100090022D4
:100032004100381441003A14410039144100371488
:01000A0022D3
:01055F002279
:1001F600020490E493A3F8E493A34003F68001F28B
:1002060008DFF48029E493A3F85407240CC8C33309
:10021600C4540F4420C8834004F456800146F6DFD8
:10022600E4800B010204081020408090000EE47E5A
:10023600019360BCA3FF543F30E509541FFEE493CD
:10024600A360010ECF54C025E060A840B8E493A394
:10025600FAE493A3F8E493A3C8C582C8CAC583CABF
:10026600F0A3C8C582C8CAC583CADFE9DEE780BE77
:0100420000BD
:10040E00BB010689828A83E0225002E722BBFE02EC
:09041E00E32289828A83E493221F
:10042700A3F8E0C5F025F0F0E58215827002158388
:06043700E0C838F0E822E5
:00000001FF
