:0300000002037088
:0C037000787FE4F6D8FD7581200203B709
:10004600900025E0FD7C00E4FFFE12060B900012F6
:10005600E07012900025E06003B403047F0280077D
:10006600E4FFFE80047F087E0012063090001AE04E
:10007600FD7C007F017E0012060B90001CE0FD7CDB
:10008600007F027E0012060B90001DE0FD7C007FC3
:10009600037E0012060B90001EE0FD7C007F047EAE
:1000A6000012060B90001FE0FD7C007F057E00120B
:1000B600060B900020E0FD7C007F067E0012060BFA
:1000C600900021E0FD7C007F077E0012060B900069
:1000D60022E0FD7C007F087E0012060B900023E0E4
:1000E600FD7C007F097E0012060B900024E0FD7C5B
:1000F600007F0A7E0012060B900000E0FD7C007F68
:100106000B7E0012060B90000BE0FD7C007F0C7E40
:100116000012060B90000CE0FD7C007F0D7E0012A5
:10012600060B90000DE0FD7C007F0E7E0012060B94
:1001360090000EE0FD7C007F0F7E0012060B900003
:100146000FE0FD7C007F107E0012060B900013E08E
:10015600FD7C007F117E0012060B900014E0FD7CF2
:10016600007F127E0012060B900015E0FD7C007FDA
:10017600137E0012060B900016E0FD7C007F147EB5
:100186000012060B900017E0FD7C007F157E001222
:10019600060B900018E0FD7C007F167E0012060B11
:1001A600900019E0FD7C007F177E0012060B900080
:1001B60001E0FCA3E0FD7F187E0012060B90000311
:1001C600E0FCA3E0FD7F197E0012060B900005E01F
:1001D600FCA3E0FD7F1A7E0012060B900007E0FCF0
:1001E600A3E0FD7F1B7E0012060B900009E0FCA336
:1001F600E0FD7F1C7E0012060B900010E0FCA3E0E1
:08020600FD7F237E0002060BC0
:1005B7001206D512046690001BE06008120046E49C
:1005C70090001BF0B2A690001AE06004C29580026A
:0D05D700D2951203FC12003E12003F80D9A5
:10065000EF1FAC0670011E4C6010900040E004F0EB
:0A06600070EE90003FE004F080E629
:01066A00226D
:0805E400900041EEF0A3EFF0DE
:1005EC00E4FBFAD3900042E09B900041E09A400E6D
:0E05FC007FDE7E011206500BBB00010A80E577
:01060A0022CD
:020038007F0146
:01003A0022A3
:100466009000257401F090001AF0E4900012F090CC
:10047600001CF0A3F0A3F0A3F0A3F0A3F0A3F0A355
:10048600F0A3F0900000F090000BF0A3F0A3F0A30F
:10049600F0A3F0900013F0A3F0A3F0A3F0A3F0A351
:1004A600F0A3F0900001F0A3F0A3F0A3F0A3F0A353
:1004B600F0A3F0A3F0A3F0A3F0900010F0A3F09047
:0504C600001B04F02200
:02003B007F0143
:01003D0022A0
:1006B100AE071FEE600DE4FCFD0DED70010C4C600A
:0306C100EF80F6D1
:0106C4002213
:0D06E400E4F5C7F5C5F5C675C380F5C42261
:1006840075C78375C5018FC4EEF5C375C65A75C6A3
:07069400A500AFC21206E44D
:01069B00223C
:10066B0075C78375C5028FC4EEF5C3AF058FC27511
:09067B00C65A75C6A5000206E48A
:10069C0075C78375C5038FC4EEF5C375C65A75C689
:0506AC00A5000206E4B8
:10000300C1004F0028FFFFFFFFFFFFFFFFFFFFFFC0
:10001300FFFFFFFF4100370041002700410026009A
:0F06D500759A50759CFD758E1475AF01D2AF22CA
:030043000205595A
:10055900C0E0C0F0C083C082C0D075D008E59A3031
:10056900E008539AFEAF9B1204CBE59A30E105539C
:0F0579009AFDC201D0D0D082D083D0F0D0E03232
:0706C5007F5A1206CC7FA54D
:0906CC002001FDEFD201F59B2293
:1005260090003CEBF0A3EAF0A3E9F090003CE0FB7E
:10053600A3E0FAA3E0F9120588601790003CA3E453
:1005460075F0011205A1A9F0FA120588FF1206CC72
:0305560080D92227
:10060B00AB07AA061206C57F051206CC7F8212061F
:10061B00CCEAFF1206CCAF031206CCECFF1206CCD1
:05062B00AF050206CC42
:10063000AD07AC061206C57F041206CC7F801206F9
:10064000CC7F031206CCECFF1206CCAF050206CC21
:1004CB00900037E01460111460161460222403703E
:1004DB0043EF645A70448010EFB4A502800A803554
:1004EB00900026EFF0E4A3F0900037E004F02290A8
:1004FB000027E02428F582E43400F583EFF0900028
:10050B0027E004F0900026E0FFA3E0C39F400B120E
:0B051B00020E800100E4900037F02287
:10020E0090002CE0FEA3E0FDEDFF90002AE0FD70D3
:10021E0017900025E06003B4020690002502034EFD
:10022E00E4900025F0020367EDB4011390001AE08C
:10023E00700504F0020367E490001AF00203679061
:10024E00002AE0FDB41108900013EFF0020367EDF1
:10025E00B41208900014EFF002036790002AE0FD3C
:10026E00B41308900015EFF0020367EDB414089074
:10027E000016EFF002036790002AE0FDB415089017
:10028E000017EFF0020367EDB41608900018EFF0B8
:10029E0002036790002AE0FDB41708900019EFF0F2
:1002AE00020367EDB41805900001802A90002AE041
:1002BE00FDB41905900003801DEDB41A05900005DC
:1002CE00801490002AE0FDB41B059000078007ED16
:1002DE00B41C0A900009EEF0A3EFF0807C90002A87
:1002EE00E0FFB41D09E4900010F0A3F0806BEFB4B2
:1002FE001E0F90000BE06004E4F0805D90000B8018
:10030E003F90002AE0FFB41F0F90000CE06004E461
:10031E00F0804690000C8028EFB4200F90000DE086
:10032E006004E4F0803390000D801590002AE0FF09
:10033E00B4211290000EE06004E4F0801C90000ED8
:10034E007401F08014EFB4221090000FE06004E40A
:10035E00F0800690000F7401F0D20090001B740123
:01036E00F09E
:01036F00226B
:040023004100430055
:1003FC00900043E014601714602114604F240370C4
:10040C005730A20320A3529000437401F02230A273
:10041C000320A33E9000437402F02220A21090000F
:10042C0025E0B401097403F090001B7401F020A3C3
:10043C00149000257401F0D290D291D2A4D2A5D2FE
:10044C009490001BF09000437403F02230A20A3009
:0A045C00A307E4900043F022002201
:100027004100391441003B1441003A14410038148F
:01003E00229F
:01003F00229E
:10037C000205B7E493A3F8E493A34003F68001F2DB
:10038C0008DFF48029E493A3F85407240CC8C33382
:10039C00C4540F4420C8834004F456800146F6DF51
:1003AC00E4800B0102040810204080900003E47EDE
:1003BC00019360BCA3FF543F30E509541FFEE49346
:1003CC00A360010ECF54C025E060A840B8E493A30D
:1003DC00FAE493A3F8E493A3C8C582C8CAC583CA38
:1003EC00F0A3C8C582C8CAC583CADFE9DEE780BEF0
:0100370000C8
:10058800BB010689828A83E0225002E722BBFE0271
:09059800E32289828A83E49322A4
:1005A100A3F8E0C5F025F0F0E5821582700215830D
:0605B100E0C838F0E8226A
:00000001FF
