:030000000201EA10
:0C01EA00787FE4F6D8FD75812002023118
:1000460090001EE0FD7C00E4FFFE120441900014C7
:10005600E0FD7C007F017E00120441900015E0FD6A
:100066007C007F027E00120441900016E0FD7C00B9
:100076007F037E00120441900017E0FD7C007F04A0
:100086007E00120441900018E0FD7C007F057E0092
:10009600120441900019E0FD7C007F067E001204E8
:1000A6004190001AE0FD7C007F077E00120441901B
:1000B600001BE0FD7C007F087E0012044190001CBE
:1000C600E0FD7C007F097E0012044190001DE0FDEA
:1000D6007C007F0A7E00120441900000E0FD7C0057
:1000E6007F0B7E00120441900006E0FD7C007F0C31
:1000F6007E00120441900007E0FD7C007F0D7E002B
:10010600120441900008E0FD7C007F0E7E00120480
:1001160041900009E0FD7C007F0F7E0012044190B3
:10012600000AE0FD7C007F107E0012044190000D65
:10013600E0FD7C007F117E0012044190000EE0FD80
:100146007C007F127E0012044190000FE0FD7C00CF
:100156007F137E00120441900010E0FD7C007F14A6
:100166007E00120441900011E0FD7C007F157E00A8
:10017600120441900012E0FD7C007F167E001204FE
:1001860041900013E0FD7C007F177E001204419031
:100196000001E0FD7C007F187E0012044190000201
:1001A600E0FD7C007F197E00120441900003E0FD13
:1001B6007C007F1A7E00120441900004E0FD7C0062
:1001C6007F1B7E00120441900005E0FD7C007F1C31
:1001D6007E0012044190000BE0FCA3E0FD7F237E2D
:0401E60000020441CE
:1004940012053E1202D112004612000912000A127D
:0B04A40005637F647E0012046D80EB96
:1004AF00EF1FAC0670011E4C6010900038E004F096
:0A04BF0070EE900037E004F080E6D4
:0104C9002210
:08046D00900035EEF0A3EFF062
:10047500E4FBFAD3900036E09B900035E09A400EFD
:0E0485007FDE7E011204AF0BBB00010A80E592
:010493002246
:020003007F017B
:0100050022D8
:1002D10090001E7401F0900014F0E4A3F0A3F0A3C9
:1002E100F0A3F0A3F0A3F0A3F0A3F0A3F09000001B
:1002F100F0900006F0A3F0A3F0A3F0A3F090000D9E
:10030100F0A3F0A3F0A3F0A3F0A3F0A3F0900001F9
:10031100F0A3F0A3F0A3F0A3F090000BF0A3F02260
:020006007F0178
:0100080022D5
:10052A00AE071FEE600DE4FCFD0DED70010C4C6092
:03053A00EF80F659
:01053D00229B
:0D054D00E4F5C7F5C5F5C675C380F5C422F9
:1004FD0075C78375C5018FC4EEF5C375C65A75C62C
:07050D00A500AFC212054D6D
:0105140022C4
:1004E40075C78375C5028FC4EEF5C3AF058FC2759A
:0904F400C65A75C6A50002054DAB
:1005150075C78375C5038FC4EEF5C375C65A75C611
:05052500A50002054DD8
:10000E00C1004F0021FFFFFFFFFFFFFFFFFFFFFFBC
:10001E00FFFFFFFF410030004100200041001F00A4
:0F053E00759A50759CFD758E1475AF01D2AF2262
:030043000203E3D2
:1003E300C0E0C0F0C083C082C0D075D008E59A30A9
:1003F300E008539AFEAF9B120276E59A30E105536B
:0F0403009AFDC201D0D0D082D083D0F0D0E032A9
:09055A002001FDEFD201F59B2206
:1003B000900039EBF0A3EAF0A3E9F0900039E0FBFC
:1003C000A3E0FAA3E0F91204126017900039A3E445
:1003D00075F00112042BA9F0FA120412FF12055A4B
:0303E00080D9229F
:10044100AB07AA067F5A12055A7FA512055A7F05E6
:1004510012055A7F8212055AEAFF12055AAF03129A
:0C046100055AECFF12055AAF0502055ABF
:10027600900030E01460111460161460222403709C
:1002860043EF645A70448010EFB4A502800A8035AB
:1002960090001FEFF0E4A3F0900030E004F022900D
:1002A6000020E02421F582E43400F583EFF090008D
:1002B60020E004F090001FE0FFA3E0C39F400B1274
:0B02C6000321800100E4900030F022D2
:10032100900025A3E0FDEDFF900023E0FD70189003
:10033100001EE06003B4020890001E7401F08028E2
:10034100E490001EF08021EDB40111900014E070E2
:100351000404F08013E4900014F0800C900023E07A
:0A036100B4110590000DEFF0D2007A
:01036B00226F
:03000B0002036C81
:10036C00C0E0C0F0C083C082C0D075D008758ACD03
:10037C00758CD490003C74FFF5F012042B45F07092
:10038C001890003CF0A37409F090001E30830574A3
:10039C0001F08002E4F0120009D0D0D082D083D0DA
:0403AC00F0D0E0327B
:1004CA00758E80758901758ACD758CD4D28CD2A926
:0A04DA00D2AFE490003CF0A3F02242
:04002E0041003E004F
:0100090022D4
:1000320041003214410034144100331441003114A0
:01000A0022D3
:010563002275
:1001F600020494E493A3F8E493A34003F68001F287
:1002060008DFF48029E493A3F85407240CC8C33309
:10021600C4540F4420C8834004F456800146F6DFD8
:10022600E4800B010204081020408090000EE47E5A
:10023600019360BCA3FF543F30E509541FFEE493CD
:10024600A360010ECF54C025E060A840B8E493A394
:10025600FAE493A3F8E493A3C8C582C8CAC583CABF
:10026600F0A3C8C582C8CAC583CADFE9DEE780BE77
:0100420000BD
:10041200BB010689828A83E0225002E722BBFE02E8
:09042200E32289828A83E493221B
:10042B00A3F8E0C5F025F0F0E58215827002158384
:06043B00E0C838F0E822E1
:00000001FF
