:030000000200ED0E
:0C00ED00787FE4F6D8FD75812002013414
:1000460090001EE0FD7C00E4FFFE12035C900014AD
:10005600E0FD7C007F017E0012035C900015E0FD50
:100066007C007F027E0012035C900016E0FD7C009F
:100076007F037E0012035C900017E0FD7C007F0486
:100086007E0012035C900018E0FD7C007F057E0078
:1000960012035C900019E0FD7C007F067E001203CF
:1000A6005C90001AE0FD7C007F077E0012035C90E6
:1000B600001BE0FD7C007F087E0012035C90001CA4
:1000C600E0FD7C007F097E0012035C90001DE0FDD0
:1000D6007C007F0A7E0012035C900000E0FD7C003D
:0700E6007F0B7E0002035CAA
:1002680012043E1201D4120046300016C200E4FF08
:1002780074212FF582E43400F583E0F5A00FEFB484
:100288000DEE12000912000A1204637FE87E0312C1
:04029800038880D285
:1003AF00EF1FAC0670011E4C6010900034E004F09B
:0A03BF0070EE900033E004F080E6D9
:0103C9002211
:08038800900031EEF0A3EFF04C
:10039000E4FBFAD3900032E09B900031E09A400EEB
:0E03A0007FDE7E011203AF0BBB00010A80E579
:0103AE00222C
:020003007F017B
:0100050022D8
:1001D40090001E7401F0900014F0E4A3F0A3F0A3C7
:1001E400F0A3F0A3F0A3F0A3F0A3F0A3F090000019
:1001F400F0900006F0A3F0A3F0A3F0A3F090000D9C
:10020400F0A3F0A3F0A3F0A3F0A3F0A3F0900001F7
:10021400F0A3F0A3F0A3F0A3F090000BF0A3F0225E
:020006007F0178
:0100080022D5
:10042A00AE071FEE600DE4FCFD0DED70010C4C6093
:03043A00EF80F65A
:01043D00229C
:0D044D00E4F5C7F5C5F5C675C380F5C422FA
:1003FD0075C78375C5018FC4EEF5C375C65A75C62D
:07040D00A500AFC212044D6F
:0104140022C5
:1003E40075C78375C5028FC4EEF5C3AF058FC2759B
:0903F400C65A75C6A50002044DAD
:1004150075C78375C5038FC4EEF5C375C65A75C612
:05042500A50002044DDA
:10000E00C1004F0021FFFFFFFFFFFFFFFFFFFFFFBC
:10001E00FFFFFFFF410030004100200041001F00A4
:0F043E00759A50759CFD758E1475AF01D2AF2263
:030043000202CFE7
:1002CF00C0E0C0F0C083C082C0D075D008E59A30BE
:1002DF00E008539AFEAF9B120179E59A30E105537E
:0F02EF009AFDC201D0D0D082D083D0F0D0E032BF
:09045A002001FDEFD201F59B2207
:10029C0090003BEBF0A3EAF0A3E9F090003BE0FB0D
:1002AC00A3E0FAA3E0F912032D601790003BA3E43E
:1002BC0075F001120346A9F0FA12032DFF12045A2D
:0302CC0080D922B4
:10035C00AB07AA067F5A12045A7FA512045A7F05CE
:10036C0012045A7F8212045AEAFF12045AAF031283
:0C037C00045AECFF12045AAF0502045AA8
:10017900900030E01460111460161460222403709A
:1001890043EF645A70448010EFB4A502800A8035A9
:1001990090001FEFF0E4A3F0900030E004F022900B
:1001A9000020E02421F582E43400F583EFF090008B
:1001B90020E004F090001FE0FFA3E0C39F400B1272
:0B01C90002FE800100E4900030F022F4
:1002FE00900025E0FEA3E0FDEDFF900035EEF0A3AB
:10030E00EFF0900023E0FF6013EFB4010F900014A4
:0E031E00E0700404F08005E4900014F0D200BA
:01032C0022AE
:03000B00020224CA
:10022400C0E0C0F0C083C082C0D075D008758ACD4C
:10023400758CD490003E74FFF5F012034645F070BF
:100244001890003EF0A37409F090001E30830574EA
:1002540001F08002E4F0120009D0D0D082D083D023
:04026400F0D0E032C4
:1003CA00758E80758901758ACD758CD4D28CD2A927
:0A03DA00D2AFE490003EF0A3F02241
:04002E00410040004D
:0100090022D4
:100032004100381441003A14410039144100371488
:01000A0022D3
:010463002276
:1000F900020268E493A3F8E493A34003F68001F2B3
:1001090008DFF48029E493A3F85407240CC8C33307
:10011900C4540F4420C8834004F456800146F6DFD6
:10012900E4800B010204081020408090000EE47E58
:10013900019360BCA3FF543F30E509541FFEE493CB
:10014900A360010ECF54C025E060A840B8E493A392
:10015900FAE493A3F8E493A3C8C582C8CAC583CABD
:10016900F0A3C8C582C8CAC583CADFE9DEE780BE75
:0100420000BD
:10032D00BB010689828A83E0225002E722BBFE02CE
:09033D00E32289828A83E4932201
:10034600A3F8E0C5F025F0F0E5821582700215836A
:06035600E0C838F0E822C7
:00000001FF
