:0300000002034BAD
:0C034B00787FE4F6D8FD75812002039253
:10004600900023E0FD7C00E4FFFE1205619000199C
:10005600E0FD7C007F017E0012056190001AE0FD44
:100066007C007F027E0012056190001BE0FD7C0093
:100076007F037E0012056190001CE0FD7C007F047A
:100086007E0012056190001DE0FD7C007F057E006C
:1000960012056190001EE0FD7C007F067E001205C1
:1000A6006190001FE0FD7C007F077E0012056190D5
:1000B6000020E0FD7C007F087E0012056190002193
:1000C600E0FD7C007F097E00120561900022E0FDC4
:1000D6007C007F0A7E00120561900000E0FD7C0036
:1000E6007F0B7E0012056190000BE0FD7C007F0C0B
:1000F6007E0012056190000CE0FD7C007F0D7E0005
:1001060012056190000DE0FD7C007F0E7E00120559
:100116006190000EE0FD7C007F0F7E00120561906D
:10012600000FE0FD7C007F107E001205619000123A
:10013600E0FD7C007F117E00120561900013E0FD5A
:100146007C007F127E00120561900014E0FD7C00A9
:100156007F137E00120561900015E0FD7C007F1480
:100166007E00120561900016E0FD7C007F157E0082
:10017600120561900017E0FD7C007F167E001205D7
:1001860061900018E0FD7C007F177E0012056190EB
:100196000001E0FCA3E0FD7F187E001205619000DF
:1001A60003E0FCA3E0FD7F197E00120561900005C7
:1001B600E0FCA3E0FD7F1A7E00120561900007E0D7
:1001C600FCA3E0FD7F1B7E00120561900009E0FCA8
:1001D600A3E0FD7F1C7E00120561900010E0FCA3E9
:0901E600E0FD7F237E00020561AB
:1005B40012065E12043212004612000912000A12D8
:0B05C40006837F647E0012058D80EB33
:1005CF00EF1FAC0670011E4C601090003DE004F070
:0A05DF0070EE90003CE004F080E6AE
:0105E90022EF
:08058D0090003AEEF0A3EFF03C
:10059500E4FBFAD390003BE09B90003AE09A400ED2
:0E05A5007FDE7E011205CF0BBB00010A80E550
:0105B3002225
:020003007F017B
:0100050022D8
:100432009000237401F0900019F0E4A3F0A3F0A35C
:10044200F0A3F0A3F0A3F0A3F0A3F0A3F0900000B8
:10045200F090000BF0A3F0A3F0A3F0A3F090001231
:10046200F0A3F0A3F0A3F0A3F0A3F0A3F090000197
:10047200F0A3F0A3F0A3F0A3F0A3F0A3F0A3F0A3E2
:0A048200F0A3F0900010F0A3F022A8
:020006007F0178
:0100080022D5
:10064A00AE071FEE600DE4FCFD0DED70010C4C6071
:03065A00EF80F638
:01065D00227A
:0D066D00E4F5C7F5C5F5C675C380F5C422D8
:10061D0075C78375C5018FC4EEF5C375C65A75C60A
:07062D00A500AFC212066D2B
:0106340022A3
:1006040075C78375C5028FC4EEF5C3AF058FC27578
:09061400C65A75C6A50002066D68
:1006350075C78375C5038FC4EEF5C375C65A75C6F0
:05064500A50002066D96
:10000E00C1004F0026FFFFFFFFFFFFFFFFFFFFFFB7
:10001E00FFFFFFFF41003500410025004100240095
:0F065E00759A50759CFD758E1475AF01D2AF2241
:03004300020503B0
:10050300C0E0C0F0C083C082C0D075D008E59A3087
:10051300E008539AFEAF9B1203D7E59A30E10553E7
:0F0523009AFDC201D0D0D082D083D0F0D0E03288
:09067A002001FDEFD201F59B22E5
:1004D00090003EEBF0A3EAF0A3E9F090003EE0FBD1
:1004E000A3E0FAA3E0F9120532601790003EA3E4FE
:1004F00075F00112054BA9F0FA120532FF12067AC7
:0305000080D9227D
:10056100AB07AA067F5A12067A7FA512067A7F0583
:1005710012067A7F8212067AEAFF12067AAF031216
:0C058100067AECFF12067AAF0502067A3B
:1003D700900035E014601114601614602224037035
:1003E70043EF645A70448010EFB4A502800A803549
:1003F700900024EFF0E4A3F0900035E004F02290A1
:100407000025E02426F582E43400F583EFF0900020
:1004170025E004F0900024E0FFA3E0C39F400B1207
:0B04270001EF800100E4900035F0229E
:1001EF0090002AE0FEA3E0FDEDFF900028E0FD70F7
:1001FF0017900023E06003B4020690002302032F40
:10020F00E4900023F0020348EDB40113900019E0CD
:10021F00700504F0020348E4900019F002034890BF
:10022F000028E0FDB41108900012EFF0020348ED32
:10023F00B41208900013EFF0020348900028E0FD7D
:10024F00B41308900014EFF0020348EDB4140890B3
:10025F000015EFF0020348900028E0FDB415089058
:10026F000016EFF0020348EDB41608900017EFF0F8
:10027F00020348900028E0FDB41708900018EFF033
:10028F00020348EDB41805900001802A900028E081
:10029F00FDB41905900003801DEDB41A05900005FB
:1002AF008014900028E0FDB41B059000078007ED37
:1002BF00B41C0A900009EEF0A3EFF0807C900028A8
:1002CF00E0FFB41D09E4900010F0A3F0806BEFB4D1
:1002DF001E0F90000BE06004E4F0805D90000B8037
:1002EF003F900028E0FFB41F0F90000CE06004E483
:1002FF00F0804690000C8028EFB4200F90000DE0A6
:10030F006004E4F0803390000D8015900028E0FF2A
:10031F00B4211290000EE06004E4F0801C90000EF7
:10032F007401F08014EFB4221090000FE06004E429
:0B033F00F0800690000F7401F0D20067
:01034A002290
:03000B0002048C60
:10048C00C0E0C0F0C083C082C0D075D008758ACDE2
:10049C00758CD490004174FFF5F012054B45F0704B
:1004AC0018900041F0A37409F09000233083057478
:1004BC0001F08002E4F0120009D0D0D082D083D0B9
:0404CC00F0D0E0325A
:1005EA00758E80758901758ACD758CD4D28CD2A905
:0A05FA00D2AFE4900041F0A3F0221C
:04002E00410043004A
:0100090022D4
:10003200410037144100391441003814410036148C
:01000A0022D3
:010683002254
:100357000205B4E493A3F8E493A34003F68001F203
:1003670008DFF48029E493A3F85407240CC8C333A7
:10037700C4540F4420C8834004F456800146F6DF76
:10038700E4800B010204081020408090000EE47EF8
:10039700019360BCA3FF543F30E509541FFEE4936B
:1003A700A360010ECF54C025E060A840B8E493A332
:1003B700FAE493A3F8E493A3C8C582C8CAC583CA5D
:1003C700F0A3C8C582C8CAC583CADFE9DEE780BE15
:0100420000BD
:10053200BB010689828A83E0225002E722BBFE02C7
:09054200E32289828A83E49322FA
:10054B00A3F8E0C5F025F0F0E58215827002158363
:06055B00E0C838F0E822C0
:00000001FF
