:03000000020A33BE
:0C0A3300787FE4F6D8FD758120020A7A75
:1003E900900025E0FD7C00E4FFFE120CD290001283
:1003F900E07012900025E06003B402047F028007D8
:10040900E4FFFE80047F087E00120CF790001AE0DA
:10041900FD7C007F017E00120CD290001CE0FD7C67
:10042900007F027E00120CD290001DE0FD7C007F4F
:10043900037E00120CD290001EE0FD7C007F047E3A
:1004490000120CD290001FE0FD7C007F057E001297
:100459000CD2900020E0FD7C007F067E00120CD2B9
:10046900900021E0FD7C007F077E00120CD29000F5
:1004790022E0FD7C007F087E00120CD2900023E070
:10048900FD7C007F097E00120CD2900024E0FD7CE7
:10049900007F0A7E00120CD2900000E0FD7C007FF4
:1004A9000B7E00120CD290000BE0FD7C007F0C7ECD
:1004B90000120CD290000CE0FD7C007F0D7E001232
:1004C9000CD290000DE0FD7C007F0E7E00120CD254
:1004D90090000EE0FD7C007F0F7E00120CD2900090
:1004E9000FE0FD7C007F107E00120CD2900013E01B
:1004F900FD7C007F117E00120CD2900014E0FD7C7F
:10050900007F127E00120CD2900015E0FD7C007F66
:10051900137E00120CD2900016E0FD7C007F147E41
:1005290000120CD2900017E0FD7C007F157E0012AE
:100539000CD2900018E0FD7C007F167E00120CD2D0
:10054900900019E0FD7C007F177E00120CD290000C
:1005590001E0FCA3E0FD7F187E00120CD29000039D
:10056900E0FCA3E0FD7F197E00120CD2900005E0AB
:10057900FCA3E0FD7F1A7E00120CD2900007E0FC7C
:10058900A3E0FD7F1B7E00120CD2900009E0FCA3C2
:10059900E0FD7F1C7E00120CD2900010E0FCA3E06D
:0805A900FD7F237E00020CD24D
:1005B10020801190001CE0700590001B04F0900059
:1005C1001C7401F030801290001CE0B40106900010
:1005D1001B7401F0E490001CF020811190001DE0DB
:1005E100700590001B04F090001D7401F030811221
:1005F10090001DE0B4010690001B7401F0E490002E
:100601001DF020821190001EE0700590001B04F087
:1006110090001E7401F030821290001EE0B40106B9
:1006210090001B7401F0E490001EF02083119000F3
:100631001FE0700590001B04F090001F7401F03062
:10064100831290001FE0B4010690001B7401F0E4D6
:1006510090001FF0208411900020E0700590001B95
:1006610004F09000207401F0308412900020E0B476
:10067100010690001B7401F0E4900020F020851128
:10068100900021E0700590001B04F090002174019E
:10069100F0308512900021E0B4010690001B740136
:1006A100F0E4900021F0208611900022E070059086
:1006B100001B04F09000227401F030861290002299
:1006C100E0B4010690001B7401F0E4900022F020D8
:1006D1008711900023E0700590001B04F090002327
:1006E1007401F0308712900023E0B4010690001BE2
:1006F1007401F0E4900023F020A011900024E07038
:100701000590001B04F09000247401F030A01290B9
:100711000024E0B4010690001B7401F0E490002471
:10072100F020A111900000E0700590001B04F090F2
:1007310000007401F030A112900000E0B4010690B5
:0B074100001B7401F0E4900000F022A7
:100ABF00E4900038F0A3F07FF47E01120CAB120B20
:100ACF0042120D9C7FAC7E0D120D17B2A612098635
:100ADF00900038E004F0E0B40A2AE4F090004AE015
:100AEF0004F07006900049E004F0900039E004F043
:100AFF00E0B40A10E4F0900048E004F070069000B3
:100B0F0047E004F090001BE060081203E9E4900056
:100B1F001BF090001AE06004C2958002D295120576
:100B2F00B1900025E0B4039C900012E07096120083
:030B3F004680915C
:100D1700EF1FAC0670011E4C6010900045E004F018
:0A0D270070EE900044E004F080E656
:010D3100229F
:080CAB00900042EEF0A3EFF00F
:100CB300E4FBFAD3900043E09B900042E09A400E9D
:0E0CC3007FDE7E01120D170BBB00010A80E5DB
:010CD1002200
:10074C0090003A7401F07F0A7E00120CAB7FC87ED9
:10075C0000120D4BEF64EE6003020880FFFE120DD9
:10076C004B900013EFF07F017E00120D4B900014A4
:10077C00EFF07F027E00120D4B900015EFF07F031F
:10078C007E00120D4B900016EFF07F047E00120DD0
:10079C004B900017EFF07F057E00120D4B90001868
:1007AC00EFF07F067E00120D4B900019EFF07F14D6
:1007BC007E00120D4BEF7F00FEC007C0067F157E3A
:1007CC0000120D4BEFFDD0E0FFD0E04D900001CFBB
:1007DC00F0A3EFF07F167E00120D4BEF7F00FEC0F2
:1007EC0007C0067F177E00120D4BEFFDD0E0FFD047
:1007FC00E04D900003CFF0A3EFF07F187E00120DB8
:10080C004BEF7F00FEC007C0067F197E00120D4B18
:10081C00EFFDD0E0FFD0E04D900005CFF0A3EFF05E
:10082C007F1A7E00120D4BEF7F00FEC007C0067FC3
:10083C001B7E00120D4BEFFDD0E0FFD0E04D900081
:10084C0007CFF0A3EFF07F1C7E00120D4BEF7F0063
:10085C00FEC007C0067F1D7E00120D4BEFFDD0E0E1
:10086C00FFD0E04D900009CFF0A3EFF090003A7468
:0E087C0001F08005E490003AF090003AE0FFB1
:01088A00224B
:100B42009000257401F0E490001AF0900012F090E9
:100B5200001CF0A3F0A3F0A3F0A3F0A3F0A3F0A372
:100B6200F0A3F0900000F090000BF0A3F0A3F0A32C
:100B7200F0A3F012074CEF70379000137414F0A337
:100B8200F0A3F0A3F0A3F0A3F0A3F0900001E4F02F
:100B9200A3741EF0A3E4F0A37428F0A3E4F0A374FA
:100BA20014F0A3E4F0A3740AF0A3E4F0A3740FF02A
:0D0BB200E4900010F0A3F090001B04F0226E
:10088B009000417401F0C2AF7F0A7E00120CABE402
:10089B00FFFE120D63900013E0FDE4FFFE120D321C
:1008AB00900014E0FD7F017E00120D32900015E0E8
:1008BB00FD7F027E00120D32900016E0FD7F037E5D
:1008CB0000120D32900017E0FD7F047E00120D32F6
:1008DB00900018E0FD7F057E00120D32900019E0AC
:1008EB00FD7F067E00120D32900001E0FD7F147E2D
:1008FB0000120D32900001A3E0FD7F157E00120D5A
:10090B0032900003E0FD7F167E00120D3290000343
:10091B00A3E0FD7F177E00120D32900005E0FD7FF6
:10092B00187E00120D32900005A3E0FD7F197E00AA
:10093B00120D32900007E0FD7F1A7E00120D3290EF
:10094B000007A3E0FD7F1B7E00120D32900009E033
:10095B00FD7F1C7E00120D32900009A3E0FD7F1D70
:10096B007E00120D327DEE7FC87E00120D32E490B8
:0A097B00001BF0D2AF900041E0FF36
:01098500224F
:100D7800AE071FEE600DE4FCFD0DED70010C4C603C
:030D8800EF80F603
:010D8B002245
:0D003600E4F5C7F5C5F5C675C380F5C42215
:100D4B0075C78375C5018FC4EEF5C375C65A75C6D5
:070D5B00A500AFC212003633
:010D6200226E
:100D320075C78375C5028FC4EEF5C3AF058FC27543
:090D4200C65A75C6A50002003670
:100D630075C78375C5038FC4EEF5C375C65A75C6BB
:050D7300A5000200369E
:100C1A00C1004F0028FFFFFFFFFFFFFFFFFFFFFF9D
:100C2A00FFFFFFFF41003700410027004100260077
:0F0D9C00759A50759CFD758E1475AF01D2AF22FC
:03004300020C4D5F
:100C4D00C0E0C0F0C083C082C0D075D008E59A3036
:100C5D00E008539AFEAF9B120BBFE59A30E10553A6
:0F0C6D009AFDC201D0D0D082D083D0F0D0E03237
:070D8C007F5A120D937FA5B1
:090D93002001FDEFD201F59B22C5
:1000030090004BEBF0A3EAF0A3E9F090004BE0FB88
:10001300A3E0FAA3E0F9120C7C601790004BA3E471
:1000230075F001120C95A9F0FA120C7CFF120D93D6
:0300330080D9224F
:100CD200AB07AA06120D8C7F05120D937F82120DAF
:100CE20093EAFF120D93AF03120D93ECFF120D93D3
:050CF200AF05020D93A7
:100CF700AD07AC06120D8C7F04120D937F80120D89
:100D0700937F03120D93ECFF120D93AF05020D9322
:100BBF00900037E014601114601614602224037043
:100BCF0043EF645A70448010EFB4A502800A803559
:100BDF00900026EFF0E4A3F0900037E004F02290AD
:100BEF000027E02428F582E43400F583EFF090002D
:100BFF0027E004F0900026E0FFA3E0C39F400B1214
:0B0C0F00021D800100E4900037F0227D
:10021D0090002CE0FEA3E0FDEDFF90003FEEF0A37B
:10022D00EFF090001B7401F090002AE0FF70179022
:10023D000025E06003B402069000250203D5E4908A
:10024D000025F00203E6EFB4011390001AE07005EB
:10025D0004F00203E6E490001AF00203E690002A8F
:10026D00E0B4110B90003FA3E090001302035890EF
:10027D00002AE0B4120B90003FA3E090001402039B
:10028D005890002AE0B4130B90003FA3E0900015A6
:10029D0002035890002AE0B4140B90003FA3E090A5
:1002AD00001602035890002AE0B4150B90003FA3EE
:1002BD00E090001702035890002AE0B4160B90004E
:1002CD003FA3E090001802035890002AE0B4170AEB
:1002DD0090003FA3E0900019807190002AE0B418BF
:1002ED001090003FE0FFA3E0900001CFF0A3EF805E
:1002FD005A90002AE0B4191090003FE0FFA3E0905F
:10030D000003CFF0A3EF804390002AE0B41A1090C1
:10031D00003FE0FFA3E0900005CFF0A3EF802C900D
:10032D00002AE0B41B1090003FE0FFA3E09000070F
:10033D00CFF0A3EF801590002AE0B41C1590003F7C
:10034D00E0FFA3E0900009CFF0A3EFF012088B02BD
:10035D0003E690002AE0FFB41D09E4900010F0A31D
:10036D00F08076EFB41E0F90000BE06004E4F08097
:10037D006890000B805290002AE0FFB41F0F900090
:10038D000CE06004E4F0805190000C803BEFB42051
:10039D000F90000DE06004E4F0803E90000D802889
:1003AD0090002AE0FFB4210F90000EE06004E4F00D
:1003BD00802790000E8011EFB4221290000FE060A4
:1003CD0004E4F0801490000F7401F0800C90002A6A
:0B03DD00E0B42405E4900012F0D20010
:0103E80022F2
:040C3A0041004E0027
:1009860090004EE014602014602A147003020A25B9
:1009960024036003020A3130A20630A303020A329E
:1009A60090004E7401F02230A20320A37890004EEE
:1009B6007402F02220A234900025E0B4012D7403C5
:1009C600F09000467401F0E490000BF090000CF0FB
:1009D60090000DF090000EF090000FF0D290D291A2
:1009E600D2A4D2A5D29490001B04F020A32A900092
:1009F600257401F0E490000BF090000CF090000DCF
:100A0600F090000EF090000FF0D290D291D2A4D2C6
:100A1600A5D29490001B04F090004E7403F022308F
:0D0A2600A20A30A307E490004EF022002247
:0E0C3E004200490000420047000041004614F9
:10004600900046E014B40F00400302021C900061C9
:1000560075F003A4C58325F0C5837302008E0200E4
:10006600C30200D10200F10200FF02011F02012DAE
:1000760002014C0201590201770201840201A70222
:1000860001B60201D60201EB90001CE06401600398
:1000960002021C90001EE06401600302021C900034
:1000A60020E06401600302021C900022E06401600B
:1000B6000302021CC29090000B040201A190001DD5
:1000C600E06401600302021C0201AF900013E0FF2E
:1000D600D390004AE09F900049E09400500302024A
:1000E6001CC29190000C74010201A190001FE064F3
:1000F60001600302021C0201AF900014E0FFD390DE
:10010600004AE09F900049E09400500302021CC29E
:10011600A490000D74010201A1900021E064016029
:100126000302021C0201AF900015E0FFD390004AC3
:10013600E09F900049E09400500302021CD291E433
:1001460090000C0201CF90001EE0640160030202E1
:100156001C8056900016E0FFD390004AE09F900066
:1001660049E09400500302021CD290E490000B80F8
:100176005890001CE06401600302021C802B900072
:1001860017E0FFD390004AE09F900049E0940050AA
:100196000302021CC2A590000E7401F090001B80A1
:1001A6003C900023E06401706D900049F0A3802D1F
:1001B600900018E0FFD390004AE09F900049E09439
:1001C600004053D2A5E490000EF090001B04800D71
:1001D600900022E0B4013FE4900049F0A3F09000C3
:1001E60046E004F022900019E0FFD390004AE09F19
:1001F600900049E09400401ED2A4E490000DF090D7
:10020600001B04F0900046F0900011E004F0700628
:07021600900010E004F0224B
:100A3F00020ABFE493A3F8E493A34003F68001F204
:100A4F0008DFF48029E493A3F85407240CC8C333B8
:100A5F00C4540F4420C8834004F456800146F6DF87
:100A6F00E4800B0102040810204080900C1AE47EF1
:100A7F00019360BCA3FF543F30E509541FFEE4937C
:100A8F00A360010ECF54C025E060A840B8E493A343
:100A9F00FAE493A3F8E493A3C8C582C8CAC583CA6E
:100AAF00F0A3C8C582C8CAC583CADFE9DEE780BE26
:010C4C0000A7
:100C7C00BB010689828A83E0225002E722BBFE0276
:090C8C00E32289828A83E49322A9
:100C9500A3F8E0C5F025F0F0E58215827002158312
:060CA500E0C838F0E8226F
:00000001FF
